{"abi":[{"type":"constructor","inputs":[],"stateMutability":"nonpayable"},{"type":"receive","stateMutability":"payable"},{"type":"function","name":"areChecksDeferred","inputs":[],"outputs":[{"name":"","type":"bool","internalType":"bool"}],"stateMutability":"view"},{"type":"function","name":"areChecksInProgress","inputs":[],"outputs":[{"name":"","type":"bool","internalType":"bool"}],"stateMutability":"view"},{"type":"function","name":"batch","inputs":[{"name":"items","type":"tuple[]","internalType":"struct IEVC.BatchItem[]","components":[{"name":"targetContract","type":"address","internalType":"address"},{"name":"onBehalfOfAccount","type":"address","internalType":"address"},{"name":"value","type":"uint256","internalType":"uint256"},{"name":"data","type":"bytes","internalType":"bytes"}]}],"outputs":[],"stateMutability":"payable"},{"type":"function","name":"batchRevert","inputs":[{"name":"items","type":"tuple[]","internalType":"struct IEVC.BatchItem[]","components":[{"name":"targetContract","type":"address","internalType":"address"},{"name":"onBehalfOfAccount","type":"address","internalType":"address"},{"name":"value","type":"uint256","internalType":"uint256"},{"name":"data","type":"bytes","internalType":"bytes"}]}],"outputs":[],"stateMutability":"payable"},{"type":"function","name":"batchSimulation","inputs":[{"name":"items","type":"tuple[]","internalType":"struct IEVC.BatchItem[]","components":[{"name":"targetContract","type":"address","internalType":"address"},{"name":"onBehalfOfAccount","type":"address","internalType":"address"},{"name":"value","type":"uint256","internalType":"uint256"},{"name":"data","type":"bytes","internalType":"bytes"}]}],"outputs":[{"name":"batchItemsResult","type":"tuple[]","internalType":"struct IEVC.BatchItemResult[]","components":[{"name":"success","type":"bool","internalType":"bool"},{"name":"result","type":"bytes","internalType":"bytes"}]},{"name":"accountsStatusCheckResult","type":"tuple[]","internalType":"struct IEVC.StatusCheckResult[]","components":[{"name":"checkedAddress","type":"address","internalType":"address"},{"name":"isValid","type":"bool","internalType":"bool"},{"name":"result","type":"bytes","internalType":"bytes"}]},{"name":"vaultsStatusCheckResult","type":"tuple[]","internalType":"struct IEVC.StatusCheckResult[]","components":[{"name":"checkedAddress","type":"address","internalType":"address"},{"name":"isValid","type":"bool","internalType":"bool"},{"name":"result","type":"bytes","internalType":"bytes"}]}],"stateMutability":"payable"},{"type":"function","name":"call","inputs":[{"name":"targetContract","type":"address","internalType":"address"},{"name":"onBehalfOfAccount","type":"address","internalType":"address"},{"name":"value","type":"uint256","internalType":"uint256"},{"name":"data","type":"bytes","internalType":"bytes"}],"outputs":[{"name":"result","type":"bytes","internalType":"bytes"}],"stateMutability":"payable"},{"type":"function","name":"controlCollateral","inputs":[{"name":"targetCollateral","type":"address","internalType":"address"},{"name":"onBehalfOfAccount","type":"address","internalType":"address"},{"name":"value","type":"uint256","internalType":"uint256"},{"name":"data","type":"bytes","internalType":"bytes"}],"outputs":[{"name":"result","type":"bytes","internalType":"bytes"}],"stateMutability":"payable"},{"type":"function","name":"disableCollateral","inputs":[{"name":"account","type":"address","internalType":"address"},{"name":"vault","type":"address","internalType":"address"}],"outputs":[],"stateMutability":"payable"},{"type":"function","name":"disableController","inputs":[{"name":"account","type":"address","internalType":"address"}],"outputs":[],"stateMutability":"payable"},{"type":"function","name":"enableCollateral","inputs":[{"name":"account","type":"address","internalType":"address"},{"name":"vault","type":"address","internalType":"address"}],"outputs":[],"stateMutability":"payable"},{"type":"function","name":"enableController","inputs":[{"name":"account","type":"address","internalType":"address"},{"name":"vault","type":"address","internalType":"address"}],"outputs":[],"stateMutability":"payable"},{"type":"function","name":"forgiveAccountStatusCheck","inputs":[{"name":"account","type":"address","internalType":"address"}],"outputs":[],"stateMutability":"payable"},{"type":"function","name":"forgiveVaultStatusCheck","inputs":[],"outputs":[],"stateMutability":"payable"},{"type":"function","name":"getAccountOwner","inputs":[{"name":"account","type":"address","internalType":"address"}],"outputs":[{"name":"","type":"address","internalType":"address"}],"stateMutability":"view"},{"type":"function","name":"getAddressPrefix","inputs":[{"name":"account","type":"address","internalType":"address"}],"outputs":[{"name":"","type":"bytes19","internalType":"bytes19"}],"stateMutability":"pure"},{"type":"function","name":"getCollaterals","inputs":[{"name":"account","type":"address","internalType":"address"}],"outputs":[{"name":"","type":"address[]","internalType":"address[]"}],"stateMutability":"view"},{"type":"function","name":"getControllers","inputs":[{"name":"account","type":"address","internalType":"address"}],"outputs":[{"name":"","type":"address[]","internalType":"address[]"}],"stateMutability":"view"},{"type":"function","name":"getCurrentOnBehalfOfAccount","inputs":[{"name":"controllerToCheck","type":"address","internalType":"address"}],"outputs":[{"name":"onBehalfOfAccount","type":"address","internalType":"address"},{"name":"controllerEnabled","type":"bool","internalType":"bool"}],"stateMutability":"view"},{"type":"function","name":"getLastAccountStatusCheckTimestamp","inputs":[{"name":"account","type":"address","internalType":"address"}],"outputs":[{"name":"","type":"uint256","internalType":"uint256"}],"stateMutability":"view"},{"type":"function","name":"getNonce","inputs":[{"name":"addressPrefix","type":"bytes19","internalType":"bytes19"},{"name":"nonceNamespace","type":"uint256","internalType":"uint256"}],"outputs":[{"name":"","type":"uint256","internalType":"uint256"}],"stateMutability":"view"},{"type":"function","name":"getOperator","inputs":[{"name":"addressPrefix","type":"bytes19","internalType":"bytes19"},{"name":"operator","type":"address","internalType":"address"}],"outputs":[{"name":"","type":"uint256","internalType":"uint256"}],"stateMutability":"view"},{"type":"function","name":"getRawExecutionContext","inputs":[],"outputs":[{"name":"context","type":"uint256","internalType":"uint256"}],"stateMutability":"view"},{"type":"function","name":"haveCommonOwner","inputs":[{"name":"account","type":"address","internalType":"address"},{"name":"otherAccount","type":"address","internalType":"address"}],"outputs":[{"name":"","type":"bool","internalType":"bool"}],"stateMutability":"pure"},{"type":"function","name":"isAccountOperatorAuthorized","inputs":[{"name":"account","type":"address","internalType":"address"},{"name":"operator","type":"address","internalType":"address"}],"outputs":[{"name":"","type":"bool","internalType":"bool"}],"stateMutability":"view"},{"type":"function","name":"isAccountStatusCheckDeferred","inputs":[{"name":"account","type":"address","internalType":"address"}],"outputs":[{"name":"","type":"bool","internalType":"bool"}],"stateMutability":"view"},{"type":"function","name":"isCollateralEnabled","inputs":[{"name":"account","type":"address","internalType":"address"},{"name":"vault","type":"address","internalType":"address"}],"outputs":[{"name":"","type":"bool","internalType":"bool"}],"stateMutability":"view"},{"type":"function","name":"isControlCollateralInProgress","inputs":[],"outputs":[{"name":"","type":"bool","internalType":"bool"}],"stateMutability":"view"},{"type":"function","name":"isControllerEnabled","inputs":[{"name":"account","type":"address","internalType":"address"},{"name":"vault","type":"address","internalType":"address"}],"outputs":[{"name":"","type":"bool","internalType":"bool"}],"stateMutability":"view"},{"type":"function","name":"isLockdownMode","inputs":[{"name":"addressPrefix","type":"bytes19","internalType":"bytes19"}],"outputs":[{"name":"","type":"bool","internalType":"bool"}],"stateMutability":"view"},{"type":"function","name":"isOperatorAuthenticated","inputs":[],"outputs":[{"name":"","type":"bool","internalType":"bool"}],"stateMutability":"view"},{"type":"function","name":"isPermitDisabledMode","inputs":[{"name":"addressPrefix","type":"bytes19","internalType":"bytes19"}],"outputs":[{"name":"","type":"bool","internalType":"bool"}],"stateMutability":"view"},{"type":"function","name":"isSimulationInProgress","inputs":[],"outputs":[{"name":"","type":"bool","internalType":"bool"}],"stateMutability":"view"},{"type":"function","name":"isVaultStatusCheckDeferred","inputs":[{"name":"vault","type":"address","internalType":"address"}],"outputs":[{"name":"","type":"bool","internalType":"bool"}],"stateMutability":"view"},{"type":"function","name":"name","inputs":[],"outputs":[{"name":"","type":"string","internalType":"string"}],"stateMutability":"view"},{"type":"function","name":"permit","inputs":[{"name":"signer","type":"address","internalType":"address"},{"name":"sender","type":"address","internalType":"address"},{"name":"nonceNamespace","type":"uint256","internalType":"uint256"},{"name":"nonce","type":"uint256","internalType":"uint256"},{"name":"deadline","type":"uint256","internalType":"uint256"},{"name":"value","type":"uint256","internalType":"uint256"},{"name":"data","type":"bytes","internalType":"bytes"},{"name":"signature","type":"bytes","internalType":"bytes"}],"outputs":[],"stateMutability":"payable"},{"type":"function","name":"reorderCollaterals","inputs":[{"name":"account","type":"address","internalType":"address"},{"name":"index1","type":"uint8","internalType":"uint8"},{"name":"index2","type":"uint8","internalType":"uint8"}],"outputs":[],"stateMutability":"payable"},{"type":"function","name":"requireAccountAndVaultStatusCheck","inputs":[{"name":"account","type":"address","internalType":"address"}],"outputs":[],"stateMutability":"payable"},{"type":"function","name":"requireAccountStatusCheck","inputs":[{"name":"account","type":"address","internalType":"address"}],"outputs":[],"stateMutability":"payable"},{"type":"function","name":"requireVaultStatusCheck","inputs":[],"outputs":[],"stateMutability":"payable"},{"type":"function","name":"setAccountOperator","inputs":[{"name":"account","type":"address","internalType":"address"},{"name":"operator","type":"address","internalType":"address"},{"name":"authorized","type":"bool","internalType":"bool"}],"outputs":[],"stateMutability":"payable"},{"type":"function","name":"setLockdownMode","inputs":[{"name":"addressPrefix","type":"bytes19","internalType":"bytes19"},{"name":"enabled","type":"bool","internalType":"bool"}],"outputs":[],"stateMutability":"payable"},{"type":"function","name":"setNonce","inputs":[{"name":"addressPrefix","type":"bytes19","internalType":"bytes19"},{"name":"nonceNamespace","type":"uint256","internalType":"uint256"},{"name":"nonce","type":"uint256","internalType":"uint256"}],"outputs":[],"stateMutability":"payable"},{"type":"function","name":"setOperator","inputs":[{"name":"addressPrefix","type":"bytes19","internalType":"bytes19"},{"name":"operator","type":"address","internalType":"address"},{"name":"operatorBitField","type":"uint256","internalType":"uint256"}],"outputs":[],"stateMutability":"payable"},{"type":"function","name":"setPermitDisabledMode","inputs":[{"name":"addressPrefix","type":"bytes19","internalType":"bytes19"},{"name":"enabled","type":"bool","internalType":"bool"}],"outputs":[],"stateMutability":"payable"},{"type":"event","name":"AccountStatusCheck","inputs":[{"name":"account","type":"address","indexed":true,"internalType":"address"},{"name":"controller","type":"address","indexed":true,"internalType":"address"}],"anonymous":false},{"type":"event","name":"CallWithContext","inputs":[{"name":"caller","type":"address","indexed":true,"internalType":"address"},{"name":"onBehalfOfAddressPrefix","type":"bytes19","indexed":true,"internalType":"bytes19"},{"name":"onBehalfOfAccount","type":"address","indexed":false,"internalType":"address"},{"name":"targetContract","type":"address","indexed":true,"internalType":"address"},{"name":"selector","type":"bytes4","indexed":false,"internalType":"bytes4"}],"anonymous":false},{"type":"event","name":"CollateralStatus","inputs":[{"name":"account","type":"address","indexed":true,"internalType":"address"},{"name":"collateral","type":"address","indexed":true,"internalType":"address"},{"name":"enabled","type":"bool","indexed":false,"internalType":"bool"}],"anonymous":false},{"type":"event","name":"ControllerStatus","inputs":[{"name":"account","type":"address","indexed":true,"internalType":"address"},{"name":"controller","type":"address","indexed":true,"internalType":"address"},{"name":"enabled","type":"bool","indexed":false,"internalType":"bool"}],"anonymous":false},{"type":"event","name":"LockdownModeStatus","inputs":[{"name":"addressPrefix","type":"bytes19","indexed":true,"internalType":"bytes19"},{"name":"enabled","type":"bool","indexed":false,"internalType":"bool"}],"anonymous":false},{"type":"event","name":"NonceStatus","inputs":[{"name":"addressPrefix","type":"bytes19","indexed":true,"internalType":"bytes19"},{"name":"nonceNamespace","type":"uint256","indexed":true,"internalType":"uint256"},{"name":"oldNonce","type":"uint256","indexed":false,"internalType":"uint256"},{"name":"newNonce","type":"uint256","indexed":false,"internalType":"uint256"}],"anonymous":false},{"type":"event","name":"NonceUsed","inputs":[{"name":"addressPrefix","type":"bytes19","indexed":true,"internalType":"bytes19"},{"name":"nonceNamespace","type":"uint256","indexed":true,"internalType":"uint256"},{"name":"nonce","type":"uint256","indexed":false,"internalType":"uint256"}],"anonymous":false},{"type":"event","name":"OperatorStatus","inputs":[{"name":"addressPrefix","type":"bytes19","indexed":true,"internalType":"bytes19"},{"name":"operator","type":"address","indexed":true,"internalType":"address"},{"name":"accountOperatorAuthorized","type":"uint256","indexed":false,"internalType":"uint256"}],"anonymous":false},{"type":"event","name":"OwnerRegistered","inputs":[{"name":"addressPrefix","type":"bytes19","indexed":true,"internalType":"bytes19"},{"name":"owner","type":"address","indexed":true,"internalType":"address"}],"anonymous":false},{"type":"event","name":"PermitDisabledModeStatus","inputs":[{"name":"addressPrefix","type":"bytes19","indexed":true,"internalType":"bytes19"},{"name":"enabled","type":"bool","indexed":false,"internalType":"bool"}],"anonymous":false},{"type":"event","name":"VaultStatusCheck","inputs":[{"name":"vault","type":"address","indexed":true,"internalType":"address"}],"anonymous":false},{"type":"error","name":"EVC_BatchPanic","inputs":[]},{"type":"error","name":"EVC_ChecksReentrancy","inputs":[]},{"type":"error","name":"EVC_ControlCollateralReentrancy","inputs":[]},{"type":"error","name":"EVC_ControllerViolation","inputs":[]},{"type":"error","name":"EVC_EmptyError","inputs":[]},{"type":"error","name":"EVC_InvalidAddress","inputs":[]},{"type":"error","name":"EVC_InvalidData","inputs":[]},{"type":"error","name":"EVC_InvalidNonce","inputs":[]},{"type":"error","name":"EVC_InvalidOperatorStatus","inputs":[]},{"type":"error","name":"EVC_InvalidTimestamp","inputs":[]},{"type":"error","name":"EVC_InvalidValue","inputs":[]},{"type":"error","name":"EVC_LockdownMode","inputs":[]},{"type":"error","name":"EVC_NotAuthorized","inputs":[]},{"type":"error","name":"EVC_OnBehalfOfAccountNotAuthenticated","inputs":[]},{"type":"error","name":"EVC_PermitDisabledMode","inputs":[]},{"type":"error","name":"EVC_RevertedBatchResult","inputs":[{"name":"batchItemsResult","type":"tuple[]","internalType":"struct IEVC.BatchItemResult[]","components":[{"name":"success","type":"bool","internalType":"bool"},{"name":"result","type":"bytes","internalType":"bytes"}]},{"name":"accountsStatusResult","type":"tuple[]","internalType":"struct IEVC.StatusCheckResult[]","components":[{"name":"checkedAddress","type":"address","internalType":"address"},{"name":"isValid","type":"bool","internalType":"bool"},{"name":"result","type":"bytes","internalType":"bytes"}]},{"name":"vaultsStatusResult","type":"tuple[]","internalType":"struct IEVC.StatusCheckResult[]","components":[{"name":"checkedAddress","type":"address","internalType":"address"},{"name":"isValid","type":"bool","internalType":"bool"},{"name":"result","type":"bytes","internalType":"bytes"}]}]},{"type":"error","name":"EVC_SimulationBatchNested","inputs":[]},{"type":"error","name":"InvalidIndex","inputs":[]},{"type":"error","name":"TooManyElements","inputs":[]}],"bytecode":{"object":"0x60c060405234801562000010575f80fd5b50600160c81b5f55620000246001620000e2565b62000030600c620000e2565b466080818152604080518082018252601881527f457468657265756d205661756c7420436f6e6e6563746f72000000000000000060209182015281517f8cad95687ba82c2ce50e74f7b754645e5117c3a5bec8151c0726d5857980a866818301527f040f0adc9d57e8bea9a4602b7065ad7261f63d709e7be772afe0ceb20a92d47381840152606081019490945230848401528151808503909301835260a09093019052805191012060a05262000162565b80546001600160f81b0316600160f81b17815560015b600a8110156200014a57600182810182600a81106200011b576200011b6200014e565b0180546001600160601b0392909216600160a01b026001600160a01b03909216919091179055600101620000f8565b5050565b634e487b7160e01b5f52603260045260245ffd5b60805160a0516155e5620001845f395f61347c01525f6133a901526155e55ff3fe6080604052600436106102da575f3560e01c8063863789d71161017b578063c368516c116100d1578063df7c138411610087578063ebf1ea8611610062578063ebf1ea8614610915578063f4fc35701461091d578063fd6046d714610930575f80fd5b8063df7c1384146108b6578063e21e537c146108d5578063e920e8e014610902575f80fd5b8063cb29955a116100b7578063cb29955a1461082d578063cdd8ea7814610884578063d44fee5a146108a3575f80fd5b8063c368516c146107fb578063c760d9211461080e575f80fd5b8063a4d25d1e11610131578063b9b70ff51161010c578063b9b70ff5146107c2578063c14c11bf146107d5578063c16ae7a4146107e8575f80fd5b8063a4d25d1e14610730578063a829aaf51461075c578063b03c130d1461076f575f80fd5b80639e716d58116101615780639e716d58146106f65780639f5c462a14610715578063a37d54af14610728575f80fd5b8063863789d71461069857806392d2fc01146106c6575f80fd5b80633b2416be1161023057806347cfdac4116101e6578063642ea23f116101c1578063642ea23f146106505780637f17c377146106635780637f5c92f314610685575f80fd5b806347cfdac4146105e0578063506d8c92146105ff5780635bedd1cd1461063d575f80fd5b8063430292b311610216578063430292b314610542578063442b172c1461056e57806346591032146105cd575f80fd5b80633b2416be146104f457806342e5349914610523575f80fd5b80631647292a1161029057806330f316671161026b57806330f31667146104785780633a1a3a1d1461048b5780633b10f3ef1461049e575f80fd5b80631647292a146103f857806318503a1e146104275780631f8b521514610465575f80fd5b8063116d0e93116102c0578063116d0e93146103a5578063129d21a0146103b857806312d6c936146103cb575f80fd5b806306fdde031461033457806310a7519814610392575f80fd5b36610330575f5474ff00000000000000000000000000000000000000001661032e576040517fe07f2e6b00000000000000000000000000000000000000000000000000000000815260040160405180910390fd5b005b5f80fd5b34801561033f575f80fd5b5061037c6040518060400160405280601881526020017f457468657265756d205661756c7420436f6e6e6563746f72000000000000000081525081565b60405161038991906148e3565b60405180910390f35b61032e6103a0366004614909565b61094f565b61032e6103b336600461494e565b610aaa565b61032e6103c636600461494e565b610bfd565b3480156103d6575f80fd5b506103ea6103e5366004614983565b610d49565b604051908152602001610389565b348015610403575f80fd5b506104176104123660046149ab565b610d7a565b6040519015158152602001610389565b348015610432575f80fd5b50610446610441366004614909565b610d8c565b604080516001600160a01b039093168352901515602083015201610389565b61037c610473366004614a1c565b610e1f565b61032e610486366004614909565b610f17565b348015610496575f80fd5b505f546103ea565b3480156104a9575f80fd5b506104176104b8366004614a8a565b6cffffffffffffffffffffffffff19165f9081526017602052604090205474010000000000000000000000000000000000000000900460ff1690565b3480156104ff575f80fd5b505f5477ff0000000000000000000000000000000000000000000000161515610417565b34801561052e575f80fd5b5061041761053d366004614909565b610f65565b34801561054d575f80fd5b505f5474ff0000000000000000000000000000000000000000161515610417565b348015610579575f80fd5b506105b5610588366004614909565b60601b6cffffffffffffffffffffffffff19165f908152601760205260409020546001600160a01b031690565b6040516001600160a01b039091168152602001610389565b61032e6105db366004614909565b610fca565b3480156105eb575f80fd5b506104176105fa3660046149ab565b610ffc565b34801561060a575f80fd5b5061061e610619366004614909565b61101d565b6040516cffffffffffffffffffffffffff199091168152602001610389565b61032e61064b366004614aa3565b611038565b61032e61065e366004614b6a565b611488565b610676610671366004614bac565b61156b565b60405161038993929190614c9c565b61032e610693366004614bac565b61171c565b3480156106a3575f80fd5b505f5476ff00000000000000000000000000000000000000000000161515610417565b3480156106d1575f80fd5b505f5478ff000000000000000000000000000000000000000000000000161515610417565b348015610701575f80fd5b506104176107103660046149ab565b6119d1565b61032e610723366004614d4f565b6119f2565b61032e611c11565b34801561073b575f80fd5b5061074f61074a366004614909565b611c45565b6040516103899190614dda565b61032e61076a366004614dec565b611c68565b34801561077a575f80fd5b506103ea610789366004614e1c565b6cffffffffffffffffffffffffff1982165f9081526018602090815260408083206001600160a01b038516845290915290205492915050565b61037c6107d0366004614a1c565b611d45565b61032e6107e3366004614e36565b611f3b565b61032e6107f6366004614bac565b612076565b61032e6108093660046149ab565b6121c8565b348015610819575f80fd5b506104176108283660046149ab565b61233c565b348015610838575f80fd5b50610417610847366004614a8a565b6cffffffffffffffffffffffffff19165f908152601760205260409020547501000000000000000000000000000000000000000000900460ff1690565b34801561088f575f80fd5b5061041761089e366004614909565b612349565b61032e6108b13660046149ab565b6123a6565b3480156108c1575f80fd5b506103ea6108d0366004614909565b612508565b3480156108e0575f80fd5b505f5475ff000000000000000000000000000000000000000000161515610417565b61032e6109103660046149ab565b61259a565b61032e6126b9565b61032e61092b366004614909565b61273f565b34801561093b575f80fd5b5061074f61094a366004614909565b612853565b5f5475ff0000000000000000000000000000000000000000008116156109a1576040517f7c1b290800000000000000000000000000000000000000000000000000000000815260040160405180910390fd5b6109f05f75ff00000000000000000000000000000000000000000083175b7fffffffffffffffffffffffff0000000000000000000000000000000000000000166001600160a01b039091161790565b5f9081556001600160a01b038084168252601b602052604090912054839160ff82169161010090041660018214610a53576040517ff1be451900000000000000000000000000000000000000000000000000000000815260040160405180910390fd5b6001600160a01b0381163314610a95576040517fe07f2e6b00000000000000000000000000000000000000000000000000000000815260040160405180910390fd5b50610aa39050600184612876565b50505f5550565b81610ab6815f80612cf1565b506cffffffffffffffffffffffffff1983165f9081526017602052604090205460ff750100000000000000000000000000000000000000000090910416151582151514610bf85781158015610b2257505f5474ff00000000000000000000000000000000000000001615155b15610b59576040517fe07f2e6b00000000000000000000000000000000000000000000000000000000815260040160405180910390fd5b6cffffffffffffffffffffffffff1983165f818152601760205260409081902080548515157501000000000000000000000000000000000000000000027fffffffffffffffffffff00ffffffffffffffffffffffffffffffffffffffffff909116179055517f6321df4e44267d425279195e7488fadba1a42d5cce9e84f596d5cf696f4449cd90610bef90851515815260200190565b60405180910390a25b505050565b81610c09815f80612cf1565b506cffffffffffffffffffffffffff1983165f9081526017602052604090205460ff7401000000000000000000000000000000000000000090910416151582151514610bf85781158015610c7d57505f5474ff000000000000000000000000000000000000000016151580610c7d57503330145b15610cb4576040517fe07f2e6b00000000000000000000000000000000000000000000000000000000815260040160405180910390fd5b6cffffffffffffffffffffffffff1983165f8181526017602052604090819020805485151574010000000000000000000000000000000000000000027fffffffffffffffffffffff00ffffffffffffffffffffffffffffffffffffffff909116179055517faf5120bc58372f0063d8362c9bba9070c462c07ae24c24082d080a426432798b90610bef90851515815260200190565b6cffffffffffffffffffffffffff1982165f9081526019602090815260408083208484529091529020545b92915050565b5f610d858383612d54565b9392505050565b5f80610d9f5f546001600160a01b031690565b91506001600160a01b038216610de1576040517f5217b8ae00000000000000000000000000000000000000000000000000000000815260040160405180910390fd5b6001600160a01b03831615610e16576001600160a01b0382165f908152601b60205260409020610e119084612ddd565b610e18565b5f5b9050915091565b5f5460609075ff000000000000000000000000000000000000000000811615610e74576040517f7c1b290800000000000000000000000000000000000000000000000000000000815260040160405180910390fd5b76ff00000000000000000000000000000000000000000000811615610ec5576040517f0ddfd8da00000000000000000000000000000000000000000000000000000000815260040160405180910390fd5b505f5474ff000000000000000000000000000000000000000081175f908155610ef18888888888612e81565b9350905080610f0357610f0383612fa2565b610f0c82612fe3565b505095945050505050565b5f5474ff00000000000000000000000000000000000000001615610f5057610f4060018261303c565b50610f4c600c3361303c565b5050565b610f59816132a2565b610f6233613326565b50565b5f805475ff0000000000000000000000000000000000000000001615610fb7576040517f7c1b290800000000000000000000000000000000000000000000000000000000815260040160405180910390fd5b610fc2600183612ddd565b90505b919050565b5f5474ff00000000000000000000000000000000000000001615610ff357610f4c60018261303c565b610f62816132a2565b6001600160a01b0382165f908152601b60205260408120610d859083612ddd565b5f606082901b6cffffffffffffffffffffffffff1916610fc2565b5f5475ff00000000000000000000000000000000000000000081161561108a576040517f7c1b290800000000000000000000000000000000000000000000000000000000815260040160405180910390fd5b76ff000000000000000000000000000000000000000000008116156110db576040517f0ddfd8da00000000000000000000000000000000000000000000000000000000815260040160405180910390fd5b503330148061110657506001600160a01b0389161580159061110657506001600160a01b0389163314155b1561113d576040517fe07f2e6b00000000000000000000000000000000000000000000000000000000815260040160405180910390fd5b6001600160a01b038a16158061115c575061115a8a610100111590565b155b15611193576040517f8133abd100000000000000000000000000000000000000000000000000000000815260040160405180910390fd5b60608a901b6cffffffffffffffffffffffffff19165f818152601760205260409020547501000000000000000000000000000000000000000000900460ff1615611209576040517f4426359200000000000000000000000000000000000000000000000000000000815260040160405180910390fd5b6cffffffffffffffffffffffffff1981165f9081526019602090815260408083208c84529091529020547fffffffffffffffffffffffffffffffffffffffffffffffffffffffffffffffff8114806112615750888114155b15611298576040517fa82b84bb00000000000000000000000000000000000000000000000000000000815260040160405180910390fd5b50428710156112d3576040517f7c9bb1cb00000000000000000000000000000000000000000000000000000000815260040160405180910390fd5b5f84900361130d576040517fe85c620e00000000000000000000000000000000000000000000000000000000815260040160405180910390fd5b5f61131e8c8c8c8c8c8c8c8c6133a5565b905061135f8185858080601f0160208091040260200160405190810160405280939291908181526020018383808284375f9201919091525061357f92505050565b6001600160a01b03168c6001600160a01b0316141580156113bd57506113bb8c8286868080601f0160208091040260200160405190810160405280939291908181526020018383808284375f9201919091525061363992505050565b155b156113f4576040517fe07f2e6b00000000000000000000000000000000000000000000000000000000815260040160405180910390fd5b6cffffffffffffffffffffffffff1982165f8181526019602090815260408083208e845282529182902060018d01905590518b81528c92917fb0dcec731e48090736be6db10ad9f9581d0ec5fc0f1925a8e267b64b614b08d6910160405180910390a35f80611466308f8b8b8b61376e565b91509150816114785761147881612fa2565b5050505050505050505050505050565b5f5475ff0000000000000000000000000000000000000000008116156114da576040517f7c1b290800000000000000000000000000000000000000000000000000000000815260040160405180910390fd5b76ff0000000000000000000000000000000000000000000081161561152b576040517f0ddfd8da00000000000000000000000000000000000000000000000000000000815260040160405180910390fd5b5082611539816001806139d4565b506001600160a01b0384165f908152601a6020526040902061155c908484613bd0565b61156584610fca565b50505050565b60608060605f80306001600160a01b0316306001600160a01b0316637f5c92f3898960405160240161159e929190614e9b565b60408051601f198184030181529181526020820180517bffffffffffffffffffffffffffffffffffffffffffffffffffffffff1660e09490941b9390931790925290516115eb9250614fe7565b5f60405180830381855af49150503d805f8114611623576040519150601f19603f3d011682016040523d82523d5f602084013e611628565b606091505b50915091508115611665576040517f4cd2d4f300000000000000000000000000000000000000000000000000000000815260040160405180910390fd5b6004815110806116bf57507fd4b0e4d30000000000000000000000000000000000000000000000000000000061169a82615002565b7fffffffff000000000000000000000000000000000000000000000000000000001614155b156116cd576116cd81612fa2565b80517ffffffffffffffffffffffffffffffffffffffffffffffffffffffffffffffffc8101600483019081529161170c91810160200190602401615269565b9199909850909650945050505050565b5f5475ff00000000000000000000000000000000000000000081161561176e576040517f7c1b290800000000000000000000000000000000000000000000000000000000815260040160405180910390fd5b76ff000000000000000000000000000000000000000000008116156117bf576040517f0ddfd8da00000000000000000000000000000000000000000000000000000000815260040160405180910390fd5b505f546060908190819074ff0000000000000000000000000000000000000000811615611818576040517fb83566c500000000000000000000000000000000000000000000000000000000815260040160405180910390fd5b78ff000000ff000000000000000000000000000000000000000081175f55848067ffffffffffffffff8111156118505761185061504d565b60405190808252806020026020018201604052801561189557816020015b604080518082019091525f81526060602082015281526020019060019003908161186e5790505b5094505f5b8181101561194d57368888838181106118b5576118b561539c565b90506020028101906118c791906153c9565b90506119006118d96020830183614909565b6118e96040840160208501614909565b60408401356118fb60608601866153fb565b612e81565b8884815181106119125761191261539c565b60200260200101515f0189858151811061192e5761192e61539c565b602090810291909101810151019190915290151590525060010161189a565b506119705f75ff00000000000000000000000000000000000000000084176109bf565b5f90815561197d90613d9b565b93506119896001613d9b565b5f8390556040517fd4b0e4d30000000000000000000000000000000000000000000000000000000081529093506119c890869086908690600401614c9c565b60405180910390fd5b6001600160a01b0382165f908152601a60205260408120610d859083612ddd565b5f6119ff8460015f6139d4565b90506cffffffffffffffffffffffffff19606085901b165f61010086841810611a4f576cffffffffffffffffffffffffff1982165f908152601760205260409020546001600160a01b0316611a51565b825b9050826001600160a01b0316816001600160a01b031614158015611a875750826001600160a01b0316856001600160a01b031614155b15611abe576040517fe07f2e6b00000000000000000000000000000000000000000000000000000000815260040160405180910390fd5b6001600160a01b038516301480611ad85750610100858218105b15611b0f576040517f8133abd100000000000000000000000000000000000000000000000000000000815260040160405180910390fd5b6cffffffffffffffffffffffffff1982165f9081526018602090815260408083206001600160a01b038981168552925282205460018985189092169190911b9186611b5d5782198216611b61565b8282175b9050808203611b9c576040517f655156bd00000000000000000000000000000000000000000000000000000000815260040160405180910390fd5b6cffffffffffffffffffffffffff1985165f8181526018602090815260408083206001600160a01b038d1680855290835292819020859055518481529192917f7ba31654d8467e98b6bd4fc56ddde246de9ade831cf860c7ac695579aecb9564910160405180910390a3505050505050505050565b5f5474ff00000000000000000000000000000000000000001615611c3a57610f62600c3361303c565b611c4333613326565b565b6001600160a01b0381165f908152601a60205260409020606090610fc290613edb565b82611c74815f80612cf1565b506cffffffffffffffffffffffffff1984165f908152601960209081526040808320868452909152902054828110611cd8576040517fa82b84bb00000000000000000000000000000000000000000000000000000000815260040160405180910390fd5b6cffffffffffffffffffffffffff1985165f81815260196020908152604080832088845282529182902086905581518481529081018690528692917f3b8510174a91acb36200f7427c1889f934941fd89ed86faf390749b4c2b46337910160405180910390a35050505050565b5f5460609075ff000000000000000000000000000000000000000000811615611d9a576040517f7c1b290800000000000000000000000000000000000000000000000000000000815260040160405180910390fd5b76ff00000000000000000000000000000000000000000000811615611deb576040517f0ddfd8da00000000000000000000000000000000000000000000000000000000815260040160405180910390fd5b506001600160a01b038086165f908152601b6020526040902054869160ff82169161010090041660018214611e4c576040517ff1be451900000000000000000000000000000000000000000000000000000000815260040160405180910390fd5b6001600160a01b0381163314611e8e576040517fe07f2e6b00000000000000000000000000000000000000000000000000000000815260040160405180910390fd5b50506001600160a01b0386165f908152601a60205260409020611eb19088612ddd565b611ee7576040517fe07f2e6b00000000000000000000000000000000000000000000000000000000815260040160405180910390fd5b5f5476ff00ff000000000000000000000000000000000000000081175f908155611f14898989898961376e565b9450905080611f2657611f2684612fa2565b611f2f82612fe3565b50505095945050505050565b5f611f47845f80612cf1565b90506001600160a01b038316301480611f635750610100838218105b15611f9a576040517f8133abd100000000000000000000000000000000000000000000000000000000815260040160405180910390fd5b6cffffffffffffffffffffffffff1984165f9081526018602090815260408083206001600160a01b0387168452909152902054829003612006576040517f655156bd00000000000000000000000000000000000000000000000000000000815260040160405180910390fd5b6cffffffffffffffffffffffffff1984165f8181526018602090815260408083206001600160a01b03881680855290835292819020869055518581529192917f7ba31654d8467e98b6bd4fc56ddde246de9ade831cf860c7ac695579aecb9564910160405180910390a350505050565b5f5475ff0000000000000000000000000000000000000000008116156120c8576040517f7c1b290800000000000000000000000000000000000000000000000000000000815260040160405180910390fd5b76ff00000000000000000000000000000000000000000000811615612119576040517f0ddfd8da00000000000000000000000000000000000000000000000000000000815260040160405180910390fd5b505f5474ff000000000000000000000000000000000000000081175f90815582905b818110156121be57368585838181106121565761215661539c565b905060200281019061216891906153c9565b90505f8061219e61217c6020850185614909565b61218c6040860160208701614909565b60408601356118fb60608801886153fb565b91509150816121b0576121b081612fa2565b50505080600101905061213b565b5061156582612fe3565b5f5475ff00000000000000000000000000000000000000000081161561221a576040517f7c1b290800000000000000000000000000000000000000000000000000000000815260040160405180910390fd5b76ff0000000000000000000000000000000000000000000081161561226b576040517f0ddfd8da00000000000000000000000000000000000000000000000000000000815260040160405180910390fd5b5081612279816001806139d4565b50306001600160a01b038316036122bc576040517f8133abd100000000000000000000000000000000000000000000000000000000815260040160405180910390fd5b6001600160a01b0383165f908152601b602052604090206122dd908361303c565b1561233357816001600160a01b0316836001600160a01b03167f9919d437ee612d4ec7bba88a7d9bc4fc36a0a23608ad6259252711a46b708af9600160405161232a911515815260200190565b60405180910390a35b610bf883610fca565b5f61010082841810610d85565b5f805475ff000000000000000000000000000000000000000000161561239b576040517f7c1b290800000000000000000000000000000000000000000000000000000000815260040160405180910390fd5b610fc2600c83612ddd565b5f5475ff0000000000000000000000000000000000000000008116156123f8576040517f7c1b290800000000000000000000000000000000000000000000000000000000815260040160405180910390fd5b76ff00000000000000000000000000000000000000000000811615612449576040517f0ddfd8da00000000000000000000000000000000000000000000000000000000815260040160405180910390fd5b5081612457816001806139d4565b50306001600160a01b0383160361249a576040517f8133abd100000000000000000000000000000000000000000000000000000000815260040160405180910390fd5b6001600160a01b0383165f908152601a602052604090206124bb908361303c565b1561233357816001600160a01b0316836001600160a01b03167ff022705c827017c972043d1984cfddc7958c9f4685b4d9ce8bd68696f4381cd2600160405161232a911515815260200190565b5f805475ff000000000000000000000000000000000000000000161561255a576040517f7c1b290800000000000000000000000000000000000000000000000000000000815260040160405180910390fd5b506001600160a01b03165f908152601b60205260409020547501000000000000000000000000000000000000000000900469ffffffffffffffffffff1690565b5f5475ff0000000000000000000000000000000000000000008116156125ec576040517f7c1b290800000000000000000000000000000000000000000000000000000000815260040160405180910390fd5b76ff0000000000000000000000000000000000000000000081161561263d576040517f0ddfd8da00000000000000000000000000000000000000000000000000000000815260040160405180910390fd5b508161264b816001806139d4565b506001600160a01b0383165f908152601a6020526040902061266d9083612876565b1561233357816001600160a01b0316836001600160a01b03167ff022705c827017c972043d1984cfddc7958c9f4685b4d9ce8bd68696f4381cd25f60405161232a911515815260200190565b5f5475ff00000000000000000000000000000000000000000081161561270b576040517f7c1b290800000000000000000000000000000000000000000000000000000000815260040160405180910390fd5b61272d5f75ff00000000000000000000000000000000000000000083176109bf565b5f5561273a600c33612876565b505f55565b5f5475ff000000000000000000000000000000000000000000811615612791576040517f7c1b290800000000000000000000000000000000000000000000000000000000815260040160405180910390fd5b76ff000000000000000000000000000000000000000000008116156127e2576040517f0ddfd8da00000000000000000000000000000000000000000000000000000000815260040160405180910390fd5b506001600160a01b0381165f908152601b602052604090206128049033612876565b1561284a576040515f815233906001600160a01b038316907f9919d437ee612d4ec7bba88a7d9bc4fc36a0a23608ad6259252711a46b708af99060200160405180910390a35b610f6281610fca565b6001600160a01b0381165f908152601b60205260409020606090610fc290613edb565b81545f9061010081046001600160a01b03169060ff8116907501000000000000000000000000000000000000000000900469ffffffffffffffffffff168184036128c5575f9350505050610d74565b5f856001600160a01b0316846001600160a01b031614612935575060015b8281101561292257856001600160a01b03168760010182600a811061290a5761290a61539c565b01546001600160a01b031614612922576001016128e3565b828103612935575f945050505050610d74565b826001036129b557507effffffffffffffffffffffffffffffffffffffffffffffffffffffffffffff69ffffffffffffffffffff909116750100000000000000000000000000000000000000000002167f01000000000000000000000000000000000000000000000000000000000000001785555060019150610d749050565b7fffffffffffffffffffffffffffffffffffffffffffffffffffffffffffffffff83015f6001890182600a81106129ee576129ee61539c565b019050818314612bf257825f03612ad457805489547f010000000000000000000000000000000000000000000000000000000000000060ff85167fff000000000000000000000000000000000000000000000000000000000000009092166101006001600160a01b03909416939093027fff00000000000000000000ffffffffffffffffffffffffffffffffffffffff00169290921717750100000000000000000000000000000000000000000069ffffffffffffffffffff871602177effffffffffffffffffffffffffffffffffffffffffffffffffffffffffffff16178955612cbd565b80546001600160a01b031660018a0184600a8110612af457612af461539c565b0180547fffffffffffffffffffffffff0000000000000000000000000000000000000000166001600160a01b0392831617905589547f010000000000000000000000000000000000000000000000000000000000000060ff85167fff00000000000000000000000000000000000000000000000000000000000000909216610100938a16939093027fff00000000000000000000ffffffffffffffffffffffffffffffffffffffff00169290921717750100000000000000000000000000000000000000000069ffffffffffffffffffff871602177effffffffffffffffffffffffffffffffffffffffffffffffffffffffffffff16178955612cbd565b88547f010000000000000000000000000000000000000000000000000000000000000060ff84167fff000000000000000000000000000000000000000000000000000000000000009092166101006001600160a01b038a16027fff00000000000000000000ffffffffffffffffffffffffffffffffffffffff00161791909117750100000000000000000000000000000000000000000069ffffffffffffffffffff871602177effffffffffffffffffffffffffffffffffffffffffffffffffffffffffffff161789555b80547fffffffffffffffffffffffff0000000000000000000000000000000000000000169055506001979650505050505050565b6cffffffffffffffffffffffffff1983165f908152601760205260408120546001600160a01b0316612d4b8115612d285781612d44565b73ffffffffffffffffffffffffffffffffffffff00606087901c165b85856139d4565b95945050505050565b6cffffffffffffffffffffffffff19606083901b165f818152601760205260408120549091906001600160a01b031680612d92575f92505050610d74565b6cffffffffffffffffffffffffff19919091165f9081526018602090815260408083206001600160a01b0396871684529091529020546001949091189092169290921b161515919050565b81545f906001600160a01b036101008204169060ff16808303612e04575f92505050610d74565b836001600160a01b0316826001600160a01b031603612e2857600192505050610d74565b60015b81811015612e7657846001600160a01b03168660010182600a8110612e5257612e5261539c565b01546001600160a01b031603612e6e5760019350505050610d74565b600101612e2b565b505f95945050505050565b5f6060306001600160a01b03881603612f67576001600160a01b03861615612ed5576040517f8133abd100000000000000000000000000000000000000000000000000000000815260040160405180910390fd5b8415612f0d576040517fbb6de1c700000000000000000000000000000000000000000000000000000000815260040160405180910390fd5b6040513090612f1f908690869061545c565b5f60405180830381855af49150503d805f8114612f57576040519150601f19603f3d011682016040523d82523d5f602084013e612f5c565b606091505b509092509050612f98565b6001600160a01b0387163314612f8557612f83866001806139d4565b505b612f92878787878761376e565b90925090505b9550959350505050565b805115612fb157805181602001fd5b6040517f38ae747c00000000000000000000000000000000000000000000000000000000815260040160405180910390fd5b74ff00000000000000000000000000000000000000008116613038576130215f75ff00000000000000000000000000000000000000000083176109bf565b5f90815561302e90613fdd565b6130386001613fdd565b5f55565b81545f9061010081046001600160a01b03169060ff8116907501000000000000000000000000000000000000000000900469ffffffffffffffffffff168184036131505785547effffffffffffffffffffffffffffffffffffffffffffffffffffffffffffff69ffffffffffffffffffff9092167501000000000000000000000000000000000000000000029190911674ffffffffffffffffffffffffffffffffffffffffff6001600160a01b038716610100027fffffffffffffffffffffff00000000000000000000000000000000000000000090931692909217600190811792909216177f01000000000000000000000000000000000000000000000000000000000000001786559250610d74915050565b846001600160a01b0316836001600160a01b031603613174575f9350505050610d74565b60015b828110156131c257856001600160a01b03168760010182600a811061319e5761319e61539c565b01546001600160a01b0316036131ba575f945050505050610d74565b600101613177565b507ffffffffffffffffffffffffffffffffffffffffffffffffffffffffffffffff6820161321c576040517f3572cf8c00000000000000000000000000000000000000000000000000000000815260040160405180910390fd5b848660010183600a81106132325761323261539c565b0180547fffffffffffffffffffffffff0000000000000000000000000000000000000000166001600160a01b03929092169190911790555084547fffffffffffffffffffffffffffffffffffffffffffffffffffffffffffffff0016600191820160ff1617909455509192915050565b5f5475ff0000000000000000000000000000000000000000008116156132f4576040517f7c1b290800000000000000000000000000000000000000000000000000000000815260040160405180910390fd5b6133165f75ff00000000000000000000000000000000000000000083176109bf565b5f556133218261400f565b5f5550565b5f5475ff000000000000000000000000000000000000000000811615613378576040517f7c1b290800000000000000000000000000000000000000000000000000000000815260040160405180910390fd5b61339a5f75ff00000000000000000000000000000000000000000083176109bf565b5f556133218261402c565b5f807f0000000000000000000000000000000000000000000000000000000000000000461461347a57604080518082018252601881527f457468657265756d205661756c7420436f6e6e6563746f72000000000000000060209182015281517f8cad95687ba82c2ce50e74f7b754645e5117c3a5bec8151c0726d5857980a866818301527f040f0adc9d57e8bea9a4602b7065ad7261f63d709e7be772afe0ceb20a92d47381840152466060820152306080808301919091528351808303909101815260a0909101909252815191012061349c565b7f00000000000000000000000000000000000000000000000000000000000000005b90505f7f4ae56dd541cf527f212121ebe3756a7631631f85f66a3073e982c01a6e2ecbf28b8b8b8b8b8b8b8b6040516134d692919061545c565b6040805191829003822060208301999099526001600160a01b0397881690820152959094166060860152608085019290925260a084015260c083015260e0820152610100810191909152610120016040516020818303038152906040528051906020012090507f19010000000000000000000000000000000000000000000000000000000000005f52816002528060225260425f2092505f602252505098975050505050505050565b5f815160411461359057505f610d74565b6020820151604083015160608401515f1a7f7fffffffffffffffffffffffffffffff5d576e7357a4501ddfe92f46681b20a08211156135d4575f9350505050610d74565b604080515f81526020810180835288905260ff831691810191909152606081018490526080810183905260019060a0016020604051602081039080840390855afa158015613624573d5f803e3d5ffd5b5050604051601f190151979650505050505050565b5f836001600160a01b03163b5f0361365257505f610d85565b5f80856001600160a01b0316858560405160240161367192919061546b565b60408051601f198184030181529181526020820180517bffffffffffffffffffffffffffffffffffffffffffffffffffffffff167f1626ba7e00000000000000000000000000000000000000000000000000000000179052516136d49190614fe7565b5f60405180830381855afa9150503d805f811461370c576040519150601f19603f3d011682016040523d82523d5f602084013e613711565b606091505b5091509150818015613724575080516020145b8015613764575080517f1626ba7e00000000000000000000000000000000000000000000000000000000906137629083016020908101908401615483565b145b9695505050505050565b5f60607fffffffffffffffffffffffffffffffffffffffffffffffffffffffffffffffff85036137a0574794506137da565b478511156137da576040517fbb6de1c700000000000000000000000000000000000000000000000000000000815260040160405180910390fd5b5f8054906137e6614037565b9050610100888218108061380257506001600160a01b03891633145b8061381557506001600160a01b03891630145b80613838575076ff00000000000000000000000000000000000000000000821615155b15613872577fffffffffffffffff00ffffff000000000000000000000000000000000000000082166001600160a01b038916175f556138bd565b77ff00000000000000000000000000000000000000000000006001600160a01b0389167fffffffffffffffffffffffff0000000000000000000000000000000000000000841617175f555b6001600160a01b038916606089901b6cffffffffffffffffffffffffff19166cffffffffffffffffffffffffff19166001600160a01b0383167f6e9738e5aa38fe1517adbb480351ec386ece82947737b18badbcad1e911133ec8b6139228a8c61549a565b604080516001600160a01b0390931683527fffffffff0000000000000000000000000000000000000000000000000000000090911660208301520160405180910390a4886001600160a01b031687878760405161398092919061545c565b5f6040518083038185875af1925050503d805f81146139ba576040519150601f19603f3d011682016040523d82523d5f602084013e6139bf565b606091505b505f9390935599919850909650505050505050565b606083901b6cffffffffffffffffffffffffff19165f818152601760205260408120549091906001600160a01b0381169074010000000000000000000000000000000000000000900460ff1683613a29614037565b90505f6101008983181015613aeb576001600160a01b038416613ace576cffffffffffffffffffffffffff1985165f8181526017602052604080822080547fffffffffffffffffffffffff0000000000000000000000000000000000000000166001600160a01b038716908117909155905194965086949092917f67cb2734834e775d6db886bf16ac03d7273b290223ee5363354b385ec5b643b091a3506001613aeb565b816001600160a01b0316846001600160a01b031603613aeb575060015b80158015613af65750875b8015613b075750613b078983612d54565b15613b10575060015b808015613b2f5750886001600160a01b0316846001600160a01b031614155b8015613b4457506001600160a01b0389163b15155b15613b4c57505f5b80613b83576040517fe07f2e6b00000000000000000000000000000000000000000000000000000000815260040160405180910390fd5b868015613b8d5750825b15613bc4576040517fd80a9cac00000000000000000000000000000000000000000000000000000000815260040160405180910390fd5b50979650505050505050565b82546001600160a01b036101008204169060ff90811690838116908516101580613bfd5750808360ff1610155b15613c34576040517f63df817100000000000000000000000000000000000000000000000000000000815260040160405180910390fd5b8360ff165f03613cce57846001018360ff16600a8110613c5657613c5661539c565b01546001600160a01b03168286600181810160ff8816600a8110613c7c57613c7c61539c565b0180546001600160a01b039485167fffffffffffffffffffffffff000000000000000000000000000000000000000090911617905581549383166101009190910a908102920219909216179055613d94565b846001018360ff16600a8110613ce657613ce661539c565b01546001600160a01b03166001860160ff8616600a8110613d0957613d0961539c565b01546001600160a01b03166001870160ff8716600a8110613d2c57613d2c61539c565b015f6001890160ff8816600a8110613d4657613d4661539c565b0180546001600160a01b039485167fffffffffffffffffffffffff000000000000000000000000000000000000000090911617905581549383166101009190910a9081029202199092161790555b5050505050565b60605f80836001811115613db157613db16154e2565b14613dc857613dc3600c614053614194565b613dd5565b613dd560016143f5614194565b80519091508067ffffffffffffffff811115613df357613df361504d565b604051908082528060200260200182016040528015613e3f57816020015b60408051606080820183525f808352602083015291810191909152815260200190600190039081613e115790505b5092505f5b81811015613ed3575f805f858481518110613e6157613e6161539c565b6020026020010151806020019051810190613e7c919061550f565b9250925092506040518060600160405280846001600160a01b03168152602001831515815260200182815250878581518110613eba57613eba61539c565b6020026020010181905250505050806001019050613e44565b505050919050565b80546060906001600160a01b036101008204169060ff165f8167ffffffffffffffff811115613f0c57613f0c61504d565b604051908082528060200260200182016040528015613f35578160200160208202803683370190505b509050815f03613f4757949350505050565b82815f81518110613f5a57613f5a61539c565b6001600160a01b039092166020928302919091019091015260015b82811015613fd4578560010181600a8110613f9257613f9261539c565b015482516001600160a01b0390911690839083908110613fb457613fb461539c565b6001600160a01b0390921660209283029190910190910152600101613f75565b50949350505050565b5f816001811115613ff057613ff06154e2565b1461400257610f62600c61402c61471e565b610f62600161400f61471e565b5f8061401a836143f5565b9150915081610bf857610bf881612fa2565b5f8061401a83614053565b5f33301461404457503390565b505f546001600160a01b031690565b60408051600481526024810182526020810180517bffffffffffffffffffffffffffffffffffffffffffffffffffffffff167f4b3d12230000000000000000000000000000000000000000000000000000000017905290515f9160609183916001600160a01b038616916140c79190614fe7565b5f604051808303815f865af19150503d805f8114614100576040519150601f19603f3d011682016040523d82523d5f602084013e614105565b606091505b5092509050808015614118575081516020145b8015614158575081517f4b3d122300000000000000000000000000000000000000000000000000000000906141569084016020908101908501615483565b145b6040519093506001600160a01b038516907faea973cfb51ea8ca328767d72f105b5b9d2360c65f5ac4110a2c4470434471c9905f90a250915091565b815460609060ff81169061010081046001600160a01b0316907501000000000000000000000000000000000000000000900469ffffffffffffffffffff165f8367ffffffffffffffff8111156141ec576141ec61504d565b60405190808252806020026020018201604052801561421f57816020015b606081526020019060019003908161420a5790505b509050835f03614234579350610d7492505050565b7effffffffffffffffffffffffffffffffffffffffffffffffffffffffffffff69ffffffffffffffffffff8316750100000000000000000000000000000000000000000002167f01000000000000000000000000000000000000000000000000000000000000001787555f806142ad8563ffffffff8a16565b915091508482826040516020016142c693929190615565565b604051602081830303815290604052835f815181106142e7576142e761539c565b602090810291909101015260015b868110156143e7575f8a60010182600a81106143135761431361539c565b0154604080518082019091525f81526001602082018190526001600160a01b039092169250908c0183600a811061434c5761434c61539c565b82516020909301516bffffffffffffffffffffffff1674010000000000000000000000000000000000000000026001600160a01b03909316929092179101556143988163ffffffff8c16565b60405191955093506143b290829086908690602001615565565b6040516020818303038152906040528583815181106143d3576143d361539c565b6020908102919091010152506001016142f5565b509198975050505050505050565b6001600160a01b038082165f908152601b602052604081208054919260609260ff80821692610100830416917f010000000000000000000000000000000000000000000000000000000000000090041682860361446a57600160405180602001604052805f8152509550955050505050915091565b60018311156144d85750506040805160048152602481019091526020810180517bffffffffffffffffffffffffffffffffffffffffffffffffffffffff167ff1be4519000000000000000000000000000000000000000000000000000000001790525f969095509350505050565b6001600160a01b038781165f908152601a602052604081209091841690899061450090613edb565b60405160240161451192919061558e565b60408051601f198184030181529181526020820180517bffffffffffffffffffffffffffffffffffffffffffffffffffffffff167fb168c58f00000000000000000000000000000000000000000000000000000000179052516145749190614fe7565b5f60405180830381855afa9150503d805f81146145ac576040519150601f19603f3d011682016040523d82523d5f602084013e6145b1565b606091505b50965090508080156145c4575085516020145b8015614604575085517fb168c58f00000000000000000000000000000000000000000000000000000000906146029088016020908101908901615483565b145b965086156146d457845460ff8581167fffffffffffffffffffffff000000000000000000000000000000000000000000909216919091176101006001600160a01b038616021774ffffffffffffffffffffffffffffffffffffffffff1675010000000000000000000000000000000000000000004269ffffffffffffffffffff16027effffffffffffffffffffffffffffffffffffffffffffffffffffffffffffff16177f0100000000000000000000000000000000000000000000000000000000000000918416919091021785555b826001600160a01b0316886001600160a01b03167f889a4d4628b31342e420737e2aeb45387087570710d26239aa8a5f13d3e829d460405160405180910390a35050505050915091565b815460ff81169061010081046001600160a01b0316907501000000000000000000000000000000000000000000900469ffffffffffffffffffff165f839003614768575050505050565b7effffffffffffffffffffffffffffffffffffffffffffffffffffffffffffff69ffffffffffffffffffff8216750100000000000000000000000000000000000000000002167f01000000000000000000000000000000000000000000000000000000000000001785556147df8263ffffffff8616565b60015b8381101561488e575f8660010182600a81106148005761480061539c565b0154604080518082019091525f81526001602082018190526001600160a01b03909216925090880183600a81106148395761483961539c565b82516020909301516bffffffffffffffffffffffff1674010000000000000000000000000000000000000000026001600160a01b03909316929092179101556148858163ffffffff8816565b506001016147e2565b505050505050565b5f5b838110156148b0578181015183820152602001614898565b50505f910152565b5f81518084526148cf816020860160208601614896565b601f01601f19169290920160200192915050565b602081525f610d8560208301846148b8565b6001600160a01b0381168114610f62575f80fd5b5f60208284031215614919575f80fd5b8135610d85816148f5565b80356cffffffffffffffffffffffffff1981168114610fc5575f80fd5b8015158114610f62575f80fd5b5f806040838503121561495f575f80fd5b61496883614924565b9150602083013561497881614941565b809150509250929050565b5f8060408385031215614994575f80fd5b61499d83614924565b946020939093013593505050565b5f80604083850312156149bc575f80fd5b82356149c7816148f5565b91506020830135614978816148f5565b5f8083601f8401126149e7575f80fd5b50813567ffffffffffffffff8111156149fe575f80fd5b602083019150836020828501011115614a15575f80fd5b9250929050565b5f805f805f60808688031215614a30575f80fd5b8535614a3b816148f5565b94506020860135614a4b816148f5565b935060408601359250606086013567ffffffffffffffff811115614a6d575f80fd5b614a79888289016149d7565b969995985093965092949392505050565b5f60208284031215614a9a575f80fd5b610d8582614924565b5f805f805f805f805f806101008b8d031215614abd575f80fd5b8a35614ac8816148f5565b995060208b0135614ad8816148f5565b985060408b0135975060608b0135965060808b0135955060a08b0135945060c08b013567ffffffffffffffff80821115614b10575f80fd5b614b1c8e838f016149d7565b909650945060e08d0135915080821115614b34575f80fd5b50614b418d828e016149d7565b915080935050809150509295989b9194979a5092959850565b803560ff81168114610fc5575f80fd5b5f805f60608486031215614b7c575f80fd5b8335614b87816148f5565b9250614b9560208501614b5a565b9150614ba360408501614b5a565b90509250925092565b5f8060208385031215614bbd575f80fd5b823567ffffffffffffffff80821115614bd4575f80fd5b818501915085601f830112614be7575f80fd5b813581811115614bf5575f80fd5b8660208260051b8501011115614c09575f80fd5b60209290920196919550909350505050565b5f82825180855260208086019550808260051b8401018186015f5b84811015614c8f57858303601f19018952815180516001600160a01b0316845284810151151585850152604090810151606091850182905290614c7b818601836148b8565b9a86019a9450505090830190600101614c36565b5090979650505050505050565b5f606082016060835280865180835260808501915060808160051b860101925060208089015f5b83811015614d25578786037fffffffffffffffffffffffffffffffffffffffffffffffffffffffffffffff8001855281518051151587528301516040848801819052614d11818901836148b8565b975050509382019390820190600101614cc3565b505085840381870152505050614d3b8186614c1b565b905082810360408401526137648185614c1b565b5f805f60608486031215614d61575f80fd5b8335614d6c816148f5565b92506020840135614d7c816148f5565b91506040840135614d8c81614941565b809150509250925092565b5f815180845260208085019450602084015f5b83811015614dcf5781516001600160a01b031687529582019590820190600101614daa565b509495945050505050565b602081525f610d856020830184614d97565b5f805f60608486031215614dfe575f80fd5b614e0784614924565b95602085013595506040909401359392505050565b5f8060408385031215614e2d575f80fd5b6149c783614924565b5f805f60608486031215614e48575f80fd5b614e5184614924565b92506020840135614e61816148f5565b929592945050506040919091013590565b81835281816020850137505f602082840101525f6020601f19601f840116840101905092915050565b60208082528181018390525f906040808401600586901b8501820187855b88811015614fd9577fffffffffffffffffffffffffffffffffffffffffffffffffffffffffffffffc088840301845281357fffffffffffffffffffffffffffffffffffffffffffffffffffffffffffffff818b3603018112614f19575f80fd5b8a0160808135614f28816148f5565b6001600160a01b0390811686528289013590614f43826148f5565b16858901528187013587860152606080830135368490037fffffffffffffffffffffffffffffffffffffffffffffffffffffffffffffffe1018112614f86575f80fd5b90920188810192903567ffffffffffffffff811115614fa3575f80fd5b803603841315614fb1575f80fd5b8282880152614fc38388018286614e72565b978a019796505050928701925050600101614eb9565b509098975050505050505050565b5f8251614ff8818460208701614896565b9190910192915050565b5f815160208301517fffffffff0000000000000000000000000000000000000000000000000000000080821693506004831015613ed35760049290920360031b82901b161692915050565b7f4e487b71000000000000000000000000000000000000000000000000000000005f52604160045260245ffd5b6040516060810167ffffffffffffffff8111828210171561509d5761509d61504d565b60405290565b6040805190810167ffffffffffffffff8111828210171561509d5761509d61504d565b604051601f8201601f1916810167ffffffffffffffff811182821017156150ef576150ef61504d565b604052919050565b5f67ffffffffffffffff8211156151105761511061504d565b5060051b60200190565b5f82601f830112615129575f80fd5b815167ffffffffffffffff8111156151435761514361504d565b6151566020601f19601f840116016150c6565b81815284602083860101111561516a575f80fd5b61517b826020830160208701614896565b949350505050565b5f82601f830112615192575f80fd5b815160206151a76151a2836150f7565b6150c6565b82815260059290921b840181019181810190868411156151c5575f80fd5b8286015b8481101561525e57805167ffffffffffffffff808211156151e8575f80fd5b8189019150606080601f19848d03011215615201575f80fd5b61520961507a565b87840151615216816148f5565b815260408481015161522781614941565b828a015291840151918383111561523c575f80fd5b61524a8d8a8588010161511a565b9082015286525050509183019183016151c9565b509695505050505050565b5f805f6060848603121561527b575f80fd5b835167ffffffffffffffff80821115615292575f80fd5b818601915086601f8301126152a5575f80fd5b815160206152b56151a2836150f7565b82815260059290921b8401810191818101908a8411156152d3575f80fd5b8286015b8481101561534b578051868111156152ed575f80fd5b87016040818e03601f19011215615302575f80fd5b61530a6150a3565b8582015161531781614941565b815260408201518881111561532a575f80fd5b6153388f888386010161511a565b82880152508452509183019183016152d7565b5091890151919750909350505080821115615364575f80fd5b61537087838801615183565b93506040860151915080821115615385575f80fd5b5061539286828701615183565b9150509250925092565b7f4e487b71000000000000000000000000000000000000000000000000000000005f52603260045260245ffd5b5f82357fffffffffffffffffffffffffffffffffffffffffffffffffffffffffffffff81833603018112614ff8575f80fd5b5f8083357fffffffffffffffffffffffffffffffffffffffffffffffffffffffffffffffe184360301811261542e575f80fd5b83018035915067ffffffffffffffff821115615448575f80fd5b602001915036819003821315614a15575f80fd5b818382375f9101908152919050565b828152604060208201525f61517b60408301846148b8565b5f60208284031215615493575f80fd5b5051919050565b7fffffffff0000000000000000000000000000000000000000000000000000000081358181169160048510156154da5780818660040360031b1b83161692505b505092915050565b7f4e487b71000000000000000000000000000000000000000000000000000000005f52602160045260245ffd5b5f805f60608486031215615521575f80fd5b835161552c816148f5565b602085015190935061553d81614941565b604085015190925067ffffffffffffffff811115615559575f80fd5b6153928682870161511a565b6001600160a01b03841681528215156020820152606060408201525f612d4b60608301846148b8565b6001600160a01b0383168152604060208201525f61517b6040830184614d9756fea26469706673582212207414c567e5190dcfe61f62c2bf724b7071ff017973cdf7cd800b17f559f9d76864736f6c63430008180033","linkReferences":{}},"methodIdentifiers":{"areChecksDeferred()":"430292b3","areChecksInProgress()":"e21e537c","batch((address,address,uint256,bytes)[])":"c16ae7a4","batchRevert((address,address,uint256,bytes)[])":"7f5c92f3","batchSimulation((address,address,uint256,bytes)[])":"7f17c377","call(address,address,uint256,bytes)":"1f8b5215","controlCollateral(address,address,uint256,bytes)":"b9b70ff5","disableCollateral(address,address)":"e920e8e0","disableController(address)":"f4fc3570","enableCollateral(address,address)":"d44fee5a","enableController(address,address)":"c368516c","forgiveAccountStatusCheck(address)":"10a75198","forgiveVaultStatusCheck()":"ebf1ea86","getAccountOwner(address)":"442b172c","getAddressPrefix(address)":"506d8c92","getCollaterals(address)":"a4d25d1e","getControllers(address)":"fd6046d7","getCurrentOnBehalfOfAccount(address)":"18503a1e","getLastAccountStatusCheckTimestamp(address)":"df7c1384","getNonce(bytes19,uint256)":"12d6c936","getOperator(bytes19,address)":"b03c130d","getRawExecutionContext()":"3a1a3a1d","haveCommonOwner(address,address)":"c760d921","isAccountOperatorAuthorized(address,address)":"1647292a","isAccountStatusCheckDeferred(address)":"42e53499","isCollateralEnabled(address,address)":"9e716d58","isControlCollateralInProgress()":"863789d7","isControllerEnabled(address,address)":"47cfdac4","isLockdownMode(bytes19)":"3b10f3ef","isOperatorAuthenticated()":"3b2416be","isPermitDisabledMode(bytes19)":"cb29955a","isSimulationInProgress()":"92d2fc01","isVaultStatusCheckDeferred(address)":"cdd8ea78","name()":"06fdde03","permit(address,address,uint256,uint256,uint256,uint256,bytes,bytes)":"5bedd1cd","reorderCollaterals(address,uint8,uint8)":"642ea23f","requireAccountAndVaultStatusCheck(address)":"30f31667","requireAccountStatusCheck(address)":"46591032","requireVaultStatusCheck()":"a37d54af","setAccountOperator(address,address,bool)":"9f5c462a","setLockdownMode(bytes19,bool)":"129d21a0","setNonce(bytes19,uint256,uint256)":"a829aaf5","setOperator(bytes19,address,uint256)":"c14c11bf","setPermitDisabledMode(bytes19,bool)":"116d0e93"},"id":1}