{
  "abi": [
    {
      "type": "constructor",
      "inputs": [
        {
          "name": "_evc",
          "type": "address",
          "internalType": "address"
        },
        {
          "name": "_governor",
          "type": "address",
          "internalType": "address"
        }
      ],
      "stateMutability": "nonpayable"
    },
    {
      "type": "function",
      "name": "EVC",
      "inputs": [],
      "outputs": [
        {
          "name": "",
          "type": "address",
          "internalType": "address"
        }
      ],
      "stateMutability": "view"
    },
    {
      "type": "function",
      "name": "fallbackOracle",
      "inputs": [],
      "outputs": [
        {
          "name": "",
          "type": "address",
          "internalType": "address"
        }
      ],
      "stateMutability": "view"
    },
    {
      "type": "function",
      "name": "getConfiguredOracle",
      "inputs": [
        {
          "name": "base",
          "type": "address",
          "internalType": "address"
        },
        {
          "name": "quote",
          "type": "address",
          "internalType": "address"
        }
      ],
      "outputs": [
        {
          "name": "",
          "type": "address",
          "internalType": "address"
        }
      ],
      "stateMutability": "view"
    },
    {
      "type": "function",
      "name": "getQuote",
      "inputs": [
        {
          "name": "inAmount",
          "type": "uint256",
          "internalType": "uint256"
        },
        {
          "name": "base",
          "type": "address",
          "internalType": "address"
        },
        {
          "name": "quote",
          "type": "address",
          "internalType": "address"
        }
      ],
      "outputs": [
        {
          "name": "",
          "type": "uint256",
          "internalType": "uint256"
        }
      ],
      "stateMutability": "view"
    },
    {
      "type": "function",
      "name": "getQuotes",
      "inputs": [
        {
          "name": "inAmount",
          "type": "uint256",
          "internalType": "uint256"
        },
        {
          "name": "base",
          "type": "address",
          "internalType": "address"
        },
        {
          "name": "quote",
          "type": "address",
          "internalType": "address"
        }
      ],
      "outputs": [
        {
          "name": "",
          "type": "uint256",
          "internalType": "uint256"
        },
        {
          "name": "",
          "type": "uint256",
          "internalType": "uint256"
        }
      ],
      "stateMutability": "view"
    },
    {
      "type": "function",
      "name": "govSetConfig",
      "inputs": [
        {
          "name": "base",
          "type": "address",
          "internalType": "address"
        },
        {
          "name": "quote",
          "type": "address",
          "internalType": "address"
        },
        {
          "name": "oracle",
          "type": "address",
          "internalType": "address"
        }
      ],
      "outputs": [],
      "stateMutability": "nonpayable"
    },
    {
      "type": "function",
      "name": "govSetFallbackOracle",
      "inputs": [
        {
          "name": "_fallbackOracle",
          "type": "address",
          "internalType": "address"
        }
      ],
      "outputs": [],
      "stateMutability": "nonpayable"
    },
    {
      "type": "function",
      "name": "govSetResolvedVault",
      "inputs": [
        {
          "name": "vault",
          "type": "address",
          "internalType": "address"
        },
        {
          "name": "set",
          "type": "bool",
          "internalType": "bool"
        }
      ],
      "outputs": [],
      "stateMutability": "nonpayable"
    },
    {
      "type": "function",
      "name": "governor",
      "inputs": [],
      "outputs": [
        {
          "name": "",
          "type": "address",
          "internalType": "address"
        }
      ],
      "stateMutability": "view"
    },
    {
      "type": "function",
      "name": "name",
      "inputs": [],
      "outputs": [
        {
          "name": "",
          "type": "string",
          "internalType": "string"
        }
      ],
      "stateMutability": "view"
    },
    {
      "type": "function",
      "name": "resolveOracle",
      "inputs": [
        {
          "name": "inAmount",
          "type": "uint256",
          "internalType": "uint256"
        },
        {
          "name": "base",
          "type": "address",
          "internalType": "address"
        },
        {
          "name": "quote",
          "type": "address",
          "internalType": "address"
        }
      ],
      "outputs": [
        {
          "name": "",
          "type": "uint256",
          "internalType": "uint256"
        },
        {
          "name": "",
          "type": "address",
          "internalType": "address"
        },
        {
          "name": "",
          "type": "address",
          "internalType": "address"
        },
        {
          "name": "",
          "type": "address",
          "internalType": "address"
        }
      ],
      "stateMutability": "view"
    },
    {
      "type": "function",
      "name": "resolvedVaults",
      "inputs": [
        {
          "name": "vault",
          "type": "address",
          "internalType": "address"
        }
      ],
      "outputs": [
        {
          "name": "asset",
          "type": "address",
          "internalType": "address"
        }
      ],
      "stateMutability": "view"
    },
    {
      "type": "function",
      "name": "transferGovernance",
      "inputs": [
        {
          "name": "newGovernor",
          "type": "address",
          "internalType": "address"
        }
      ],
      "outputs": [],
      "stateMutability": "nonpayable"
    },
    {
      "type": "event",
      "name": "ConfigSet",
      "inputs": [
        {
          "name": "asset0",
          "type": "address",
          "indexed": true,
          "internalType": "address"
        },
        {
          "name": "asset1",
          "type": "address",
          "indexed": true,
          "internalType": "address"
        },
        {
          "name": "oracle",
          "type": "address",
          "indexed": true,
          "internalType": "address"
        }
      ],
      "anonymous": false
    },
    {
      "type": "event",
      "name": "FallbackOracleSet",
      "inputs": [
        {
          "name": "fallbackOracle",
          "type": "address",
          "indexed": true,
          "internalType": "address"
        }
      ],
      "anonymous": false
    },
    {
      "type": "event",
      "name": "GovernorSet",
      "inputs": [
        {
          "name": "oldGovernor",
          "type": "address",
          "indexed": true,
          "internalType": "address"
        },
        {
          "name": "newGovernor",
          "type": "address",
          "indexed": true,
          "internalType": "address"
        }
      ],
      "anonymous": false
    },
    {
      "type": "event",
      "name": "ResolvedVaultSet",
      "inputs": [
        {
          "name": "vault",
          "type": "address",
          "indexed": true,
          "internalType": "address"
        },
        {
          "name": "asset",
          "type": "address",
          "indexed": true,
          "internalType": "address"
        }
      ],
      "anonymous": false
    },
    {
      "type": "error",
      "name": "ControllerDisabled",
      "inputs": []
    },
    {
      "type": "error",
      "name": "EVC_InvalidAddress",
      "inputs": []
    },
    {
      "type": "error",
      "name": "Governance_CallerNotGovernor",
      "inputs": []
    },
    {
      "type": "error",
      "name": "NotAuthorized",
      "inputs": []
    },
    {
      "type": "error",
      "name": "PriceOracle_InvalidConfiguration",
      "inputs": []
    },
    {
      "type": "error",
      "name": "PriceOracle_NotSupported",
      "inputs": [
        {
          "name": "base",
          "type": "address",
          "internalType": "address"
        },
        {
          "name": "quote",
          "type": "address",
          "internalType": "address"
        }
      ]
    }
  ],
  "bytecode": {
    "object": "0x60a060405234801562000010575f80fd5b5060405162001bdd38038062001bdd83398101604081905262000033916200011c565b8181816001600160a01b0381166200005e57604051638133abd160e01b815260040160405180910390fd5b6001600160a01b03166080526200007581620000a7565b50506001600160a01b0381166200009f576040516301a4c16560e21b815260040160405180910390fd5b505062000152565b5f80546040516001600160a01b03808516939216917ff31bb200dbf42bb9cecaa49dceb87eae178b024ad3cf2930b4aaac5cb0f96ec091a35f80546001600160a01b0319166001600160a01b0392909216919091179055565b80516001600160a01b038116811462000117575f80fd5b919050565b5f80604083850312156200012e575f80fd5b620001398362000100565b9150620001496020840162000100565b90509250929050565b608051611a10620001cd5f395f8181610266015281816103e9015281816104120152818161059a01528181610b2d01528181610b5601528181610cde01528181610e6501528181610e8e015281816110160152818161128c015281816112b50152818161143d01528181611628015261167c0152611a105ff3fe608060405234801561000f575f80fd5b50600436106100da575f3560e01c80638418e6f311610088578063ae68676c11610063578063ae68676c1461028a578063d38bfff4146102ab578063d6c02926146102be578063eab49501146102d1575f80fd5b80638418e6f3146102025780638aa7760814610251578063a70354a114610264575f80fd5b80630c340a24116100b85780630c340a24146101695780635ca40017146101ad578063629838e5146101e2575f80fd5b80630579e61f146100de57806306c570c11461010b57806306fdde0314610120575b5f80fd5b6100f16100ec3660046117f8565b6102e4565b604080519283526020830191909152015b60405180910390f35b61011e610119366004611837565b6103d2565b005b61015c6040518060400160405280600b81526020017f45756c6572526f7574657200000000000000000000000000000000000000000081525081565b6040516101029190611864565b5f546101889073ffffffffffffffffffffffffffffffffffffffff1681565b60405173ffffffffffffffffffffffffffffffffffffffff9091168152602001610102565b6101886101bb3660046118ce565b60026020525f908152604090205473ffffffffffffffffffffffffffffffffffffffff1681565b6001546101889073ffffffffffffffffffffffffffffffffffffffff1681565b6102156102103660046117f8565b610803565b6040805194855273ffffffffffffffffffffffffffffffffffffffff938416602086015291831691840191909152166060820152608001610102565b61018861025f3660046118e9565b6109e5565b7f0000000000000000000000000000000000000000000000000000000000000000610188565b61029d6102983660046117f8565b610a2e565b604051908152602001610102565b61011e6102b93660046118ce565b610b16565b61011e6102cc36600461192d565b610e4e565b61011e6102df3660046118ce565b611275565b5f805f6102f2868686610803565b9298509096509450905073ffffffffffffffffffffffffffffffffffffffff8085169086160361032857858692509250506103ca565b6040517f0579e61f0000000000000000000000000000000000000000000000000000000081526004810187905273ffffffffffffffffffffffffffffffffffffffff86811660248301528581166044830152821690630579e61f906064016040805180830381865afa1580156103a0573d5f803e3d5ffd5b505050506040513d601f19601f820116820180604052508101906103c49190611959565b92509250505b935093915050565b73ffffffffffffffffffffffffffffffffffffffff7f0000000000000000000000000000000000000000000000000000000000000000163303610691575f7f000000000000000000000000000000000000000000000000000000000000000073ffffffffffffffffffffffffffffffffffffffff16633a1a3a1d6040518163ffffffff1660e01b8152600401602060405180830381865afa158015610479573d5f803e3d5ffd5b505050506040513d601f19601f8201168201806040525081019061049d919061197b565b905077ff000000000000000000000000000000000000000000000081161515806104df575076ff00000000000000000000000000000000000000000000811615155b80610501575075ff000000000000000000000000000000000000000000811615155b15610538576040517fea8e4eb500000000000000000000000000000000000000000000000000000000815260040160405180910390fd5b5f73ffffffffffffffffffffffffffffffffffffffff82166040517f442b172c00000000000000000000000000000000000000000000000000000000815273ffffffffffffffffffffffffffffffffffffffff80831660048301529192505f917f0000000000000000000000000000000000000000000000000000000000000000169063442b172c90602401602060405180830381865afa1580156105df573d5f803e3d5ffd5b505050506040513d601f19601f820116820180604052508101906106039190611992565b905073ffffffffffffffffffffffffffffffffffffffff81161580159061065657508173ffffffffffffffffffffffffffffffffffffffff168173ffffffffffffffffffffffffffffffffffffffff1614155b1561068d576040517fea8e4eb500000000000000000000000000000000000000000000000000000000815260040160405180910390fd5b5050505b5f5473ffffffffffffffffffffffffffffffffffffffff166106b161160f565b73ffffffffffffffffffffffffffffffffffffffff16146106fe576040517ff9e36c0300000000000000000000000000000000000000000000000000000000815260040160405180910390fd5b8173ffffffffffffffffffffffffffffffffffffffff168373ffffffffffffffffffffffffffffffffffffffff1603610763576040517f0693059400000000000000000000000000000000000000000000000000000000815260040160405180910390fd5b5f8061076f8585611702565b73ffffffffffffffffffffffffffffffffffffffff8281165f818152600360209081526040808320868616808552925280832080547fffffffffffffffffffffffff000000000000000000000000000000000000000016958b16958617905551959750939550919390917f4ac83f39568b63f952374c82351889b07aff4f7e261232a20ba5a2a6d82b9ce091a45050505050565b5f805f808473ffffffffffffffffffffffffffffffffffffffff168673ffffffffffffffffffffffffffffffffffffffff160361084a57508592508491508390505f6109dc565b5f61085587876109e5565b905073ffffffffffffffffffffffffffffffffffffffff8116156108835787945086935085925090506109dc565b73ffffffffffffffffffffffffffffffffffffffff8088165f90815260026020526040902054168015610959576040517f07a2d13a000000000000000000000000000000000000000000000000000000008152600481018a905273ffffffffffffffffffffffffffffffffffffffff8916906307a2d13a90602401602060405180830381865afa158015610919573d5f803e3d5ffd5b505050506040513d601f19601f8201168201806040525081019061093d919061197b565b985061094a898289610803565b955095509550955050506109dc565b60015473ffffffffffffffffffffffffffffffffffffffff169150816109cf576040517f4ca22af000000000000000000000000000000000000000000000000000000000815273ffffffffffffffffffffffffffffffffffffffff808a1660048301528816602482015260440160405180910390fd5b5087945086935085925090505b93509350935093565b5f805f6109f28585611702565b73ffffffffffffffffffffffffffffffffffffffff9182165f908152600360209081526040808320938516835292905220541695945050505050565b5f80610a3b858585610803565b9297509095509350905073ffffffffffffffffffffffffffffffffffffffff80841690851603610a6e5784915050610b0f565b6040517fae68676c0000000000000000000000000000000000000000000000000000000081526004810186905273ffffffffffffffffffffffffffffffffffffffff8581166024830152848116604483015282169063ae68676c90606401602060405180830381865afa158015610ae7573d5f803e3d5ffd5b505050506040513d601f19601f82011682018060405250810190610b0b919061197b565b9150505b9392505050565b73ffffffffffffffffffffffffffffffffffffffff7f0000000000000000000000000000000000000000000000000000000000000000163303610dd5575f7f000000000000000000000000000000000000000000000000000000000000000073ffffffffffffffffffffffffffffffffffffffff16633a1a3a1d6040518163ffffffff1660e01b8152600401602060405180830381865afa158015610bbd573d5f803e3d5ffd5b505050506040513d601f19601f82011682018060405250810190610be1919061197b565b905077ff00000000000000000000000000000000000000000000008116151580610c23575076ff00000000000000000000000000000000000000000000811615155b80610c45575075ff000000000000000000000000000000000000000000811615155b15610c7c576040517fea8e4eb500000000000000000000000000000000000000000000000000000000815260040160405180910390fd5b5f73ffffffffffffffffffffffffffffffffffffffff82166040517f442b172c00000000000000000000000000000000000000000000000000000000815273ffffffffffffffffffffffffffffffffffffffff80831660048301529192505f917f0000000000000000000000000000000000000000000000000000000000000000169063442b172c90602401602060405180830381865afa158015610d23573d5f803e3d5ffd5b505050506040513d601f19601f82011682018060405250810190610d479190611992565b905073ffffffffffffffffffffffffffffffffffffffff811615801590610d9a57508173ffffffffffffffffffffffffffffffffffffffff168173ffffffffffffffffffffffffffffffffffffffff1614155b15610dd1576040517fea8e4eb500000000000000000000000000000000000000000000000000000000815260040160405180910390fd5b5050505b5f5473ffffffffffffffffffffffffffffffffffffffff16610df561160f565b73ffffffffffffffffffffffffffffffffffffffff1614610e42576040517ff9e36c0300000000000000000000000000000000000000000000000000000000815260040160405180910390fd5b610e4b8161174c565b50565b73ffffffffffffffffffffffffffffffffffffffff7f000000000000000000000000000000000000000000000000000000000000000016330361110d575f7f000000000000000000000000000000000000000000000000000000000000000073ffffffffffffffffffffffffffffffffffffffff16633a1a3a1d6040518163ffffffff1660e01b8152600401602060405180830381865afa158015610ef5573d5f803e3d5ffd5b505050506040513d601f19601f82011682018060405250810190610f19919061197b565b905077ff00000000000000000000000000000000000000000000008116151580610f5b575076ff00000000000000000000000000000000000000000000811615155b80610f7d575075ff000000000000000000000000000000000000000000811615155b15610fb4576040517fea8e4eb500000000000000000000000000000000000000000000000000000000815260040160405180910390fd5b5f73ffffffffffffffffffffffffffffffffffffffff82166040517f442b172c00000000000000000000000000000000000000000000000000000000815273ffffffffffffffffffffffffffffffffffffffff80831660048301529192505f917f0000000000000000000000000000000000000000000000000000000000000000169063442b172c90602401602060405180830381865afa15801561105b573d5f803e3d5ffd5b505050506040513d601f19601f8201168201806040525081019061107f9190611992565b905073ffffffffffffffffffffffffffffffffffffffff8116158015906110d257508173ffffffffffffffffffffffffffffffffffffffff168173ffffffffffffffffffffffffffffffffffffffff1614155b15611109576040517fea8e4eb500000000000000000000000000000000000000000000000000000000815260040160405180910390fd5b5050505b5f5473ffffffffffffffffffffffffffffffffffffffff1661112d61160f565b73ffffffffffffffffffffffffffffffffffffffff161461117a576040517ff9e36c0300000000000000000000000000000000000000000000000000000000815260040160405180910390fd5b5f81611186575f6111f3565b8273ffffffffffffffffffffffffffffffffffffffff166338d52e0f6040518163ffffffff1660e01b8152600401602060405180830381865afa1580156111cf573d5f803e3d5ffd5b505050506040513d601f19601f820116820180604052508101906111f39190611992565b73ffffffffffffffffffffffffffffffffffffffff8481165f8181526002602052604080822080547fffffffffffffffffffffffff000000000000000000000000000000000000000016948616948517905551939450919290917f15beaec71c94ee69b5a824e905ca6d1260da10196b715c38b565b80180f630ce91a3505050565b73ffffffffffffffffffffffffffffffffffffffff7f0000000000000000000000000000000000000000000000000000000000000000163303611534575f7f000000000000000000000000000000000000000000000000000000000000000073ffffffffffffffffffffffffffffffffffffffff16633a1a3a1d6040518163ffffffff1660e01b8152600401602060405180830381865afa15801561131c573d5f803e3d5ffd5b505050506040513d601f19601f82011682018060405250810190611340919061197b565b905077ff00000000000000000000000000000000000000000000008116151580611382575076ff00000000000000000000000000000000000000000000811615155b806113a4575075ff000000000000000000000000000000000000000000811615155b156113db576040517fea8e4eb500000000000000000000000000000000000000000000000000000000815260040160405180910390fd5b5f73ffffffffffffffffffffffffffffffffffffffff82166040517f442b172c00000000000000000000000000000000000000000000000000000000815273ffffffffffffffffffffffffffffffffffffffff80831660048301529192505f917f0000000000000000000000000000000000000000000000000000000000000000169063442b172c90602401602060405180830381865afa158015611482573d5f803e3d5ffd5b505050506040513d601f19601f820116820180604052508101906114a69190611992565b905073ffffffffffffffffffffffffffffffffffffffff8116158015906114f957508173ffffffffffffffffffffffffffffffffffffffff168173ffffffffffffffffffffffffffffffffffffffff1614155b15611530576040517fea8e4eb500000000000000000000000000000000000000000000000000000000815260040160405180910390fd5b5050505b5f5473ffffffffffffffffffffffffffffffffffffffff1661155461160f565b73ffffffffffffffffffffffffffffffffffffffff16146115a1576040517ff9e36c0300000000000000000000000000000000000000000000000000000000815260040160405180910390fd5b600180547fffffffffffffffffffffffff00000000000000000000000000000000000000001673ffffffffffffffffffffffffffffffffffffffff83169081179091556040517fef21cd88756d665855f56a2652b7eda229d6f3102988a95975e46964d24d478a905f90a250565b5f3373ffffffffffffffffffffffffffffffffffffffff7f00000000000000000000000000000000000000000000000000000000000000001681036116fd576040517f18503a1e0000000000000000000000000000000000000000000000000000000081525f60048201527f000000000000000000000000000000000000000000000000000000000000000073ffffffffffffffffffffffffffffffffffffffff16906318503a1e906024016040805180830381865afa1580156116d5573d5f803e3d5ffd5b505050506040513d601f19601f820116820180604052508101906116f991906119ad565b5090505b919050565b5f808273ffffffffffffffffffffffffffffffffffffffff168473ffffffffffffffffffffffffffffffffffffffff161061173e578284611741565b83835b915091509250929050565b5f805460405173ffffffffffffffffffffffffffffffffffffffff808516939216917ff31bb200dbf42bb9cecaa49dceb87eae178b024ad3cf2930b4aaac5cb0f96ec091a35f80547fffffffffffffffffffffffff00000000000000000000000000000000000000001673ffffffffffffffffffffffffffffffffffffffff92909216919091179055565b73ffffffffffffffffffffffffffffffffffffffff81168114610e4b575f80fd5b5f805f6060848603121561180a575f80fd5b83359250602084013561181c816117d7565b9150604084013561182c816117d7565b809150509250925092565b5f805f60608486031215611849575f80fd5b8335611854816117d7565b9250602084013561181c816117d7565b5f602080835283518060208501525f5b8181101561189057858101830151858201604001528201611874565b505f6040828601015260407fffffffffffffffffffffffffffffffffffffffffffffffffffffffffffffffe0601f8301168501019250505092915050565b5f602082840312156118de575f80fd5b8135610b0f816117d7565b5f80604083850312156118fa575f80fd5b8235611905816117d7565b91506020830135611915816117d7565b809150509250929050565b8015158114610e4b575f80fd5b5f806040838503121561193e575f80fd5b8235611949816117d7565b9150602083013561191581611920565b5f806040838503121561196a575f80fd5b505080516020909101519092909150565b5f6020828403121561198b575f80fd5b5051919050565b5f602082840312156119a2575f80fd5b8151610b0f816117d7565b5f80604083850312156119be575f80fd5b82516119c9816117d7565b60208401519092506119158161192056fea2646970667358221220d71b678db67805238737a693bdeb1d631c306ac5cfc0a7e825ebbdb41998540a64736f6c63430008180033",
    "linkReferences": {}
  },
  "methodIdentifiers": {
    "EVC()": "a70354a1",
    "fallbackOracle()": "629838e5",
    "getConfiguredOracle(address,address)": "8aa77608",
    "getQuote(uint256,address,address)": "ae68676c",
    "getQuotes(uint256,address,address)": "0579e61f",
    "govSetConfig(address,address,address)": "06c570c1",
    "govSetFallbackOracle(address)": "eab49501",
    "govSetResolvedVault(address,bool)": "d6c02926",
    "governor()": "0c340a24",
    "name()": "06fdde03",
    "resolveOracle(uint256,address,address)": "8418e6f3",
    "resolvedVaults(address)": "5ca40017",
    "transferGovernance(address)": "d38bfff4"
  },
  "id": 37
}