{"abi":[{"type":"constructor","inputs":[{"name":"admin","type":"address","internalType":"address"}],"stateMutability":"nonpayable"},{"type":"function","name":"createProxy","inputs":[{"name":"desiredImplementation","type":"address","internalType":"address"},{"name":"upgradeable","type":"bool","internalType":"bool"},{"name":"trailingData","type":"bytes","internalType":"bytes"}],"outputs":[{"name":"","type":"address","internalType":"address"}],"stateMutability":"nonpayable"},{"type":"function","name":"getProxyConfig","inputs":[{"name":"proxy","type":"address","internalType":"address"}],"outputs":[{"name":"config","type":"tuple","internalType":"struct GenericFactory.ProxyConfig","components":[{"name":"upgradeable","type":"bool","internalType":"bool"},{"name":"implementation","type":"address","internalType":"address"},{"name":"trailingData","type":"bytes","internalType":"bytes"}]}],"stateMutability":"view"},{"type":"function","name":"getProxyListLength","inputs":[],"outputs":[{"name":"","type":"uint256","internalType":"uint256"}],"stateMutability":"view"},{"type":"function","name":"getProxyListSlice","inputs":[{"name":"start","type":"uint256","internalType":"uint256"},{"name":"end","type":"uint256","internalType":"uint256"}],"outputs":[{"name":"list","type":"address[]","internalType":"address[]"}],"stateMutability":"view"},{"type":"function","name":"implementation","inputs":[],"outputs":[{"name":"","type":"address","internalType":"address"}],"stateMutability":"view"},{"type":"function","name":"isProxy","inputs":[{"name":"proxy","type":"address","internalType":"address"}],"outputs":[{"name":"","type":"bool","internalType":"bool"}],"stateMutability":"view"},{"type":"function","name":"proxyList","inputs":[{"name":"","type":"uint256","internalType":"uint256"}],"outputs":[{"name":"","type":"address","internalType":"address"}],"stateMutability":"view"},{"type":"function","name":"setImplementation","inputs":[{"name":"newImplementation","type":"address","internalType":"address"}],"outputs":[],"stateMutability":"nonpayable"},{"type":"function","name":"setUpgradeAdmin","inputs":[{"name":"newUpgradeAdmin","type":"address","internalType":"address"}],"outputs":[],"stateMutability":"nonpayable"},{"type":"function","name":"upgradeAdmin","inputs":[],"outputs":[{"name":"","type":"address","internalType":"address"}],"stateMutability":"view"},{"type":"event","name":"Genesis","inputs":[],"anonymous":false},{"type":"event","name":"ProxyCreated","inputs":[{"name":"proxy","type":"address","indexed":true,"internalType":"address"},{"name":"upgradeable","type":"bool","indexed":false,"internalType":"bool"},{"name":"implementation","type":"address","indexed":false,"internalType":"address"},{"name":"trailingData","type":"bytes","indexed":false,"internalType":"bytes"}],"anonymous":false},{"type":"event","name":"SetImplementation","inputs":[{"name":"newImplementation","type":"address","indexed":true,"internalType":"address"}],"anonymous":false},{"type":"event","name":"SetUpgradeAdmin","inputs":[{"name":"newUpgradeAdmin","type":"address","indexed":true,"internalType":"address"}],"anonymous":false},{"type":"error","name":"E_BadAddress","inputs":[]},{"type":"error","name":"E_BadQuery","inputs":[]},{"type":"error","name":"E_DeploymentFailed","inputs":[]},{"type":"error","name":"E_Implementation","inputs":[]},{"type":"error","name":"E_Reentrancy","inputs":[]},{"type":"error","name":"E_Unauthorized","inputs":[]}],"bytecode":{"object":"0x608060405234801561000f575f5ffd5b5060405161162838038061162883398101604081905261002e916100cc565b6040517f6bf6eaff5e9af8fbccb949f4c38cc016936f8775363ccf4224db160365785d52905f90a16001600160a01b03811661007d576040516306e1f36760e31b815260040160405180910390fd5b60015f81815581546001600160a01b0319166001600160a01b0384169081179092556040517f7b1ebd0f3ec81bf1cd5f478166ec87beaea1eee7f3bc2612295ae161048a239f9190a2506100f9565b5f602082840312156100dc575f5ffd5b81516001600160a01b03811681146100f2575f5ffd5b9392505050565b611522806101065f395ff3fe608060405234801561000f575f5ffd5b50600436106100b9575f3560e01c80639342f41711610072578063c0e96df611610058578063c0e96df6146101c2578063c4d5608a146101e2578063d784d42614610202575f5ffd5b80639342f4171461018d578063a20ea5c1146101a2575f5ffd5b8063378cdb62116100a2578063378cdb62146101225780635c60da1b1461015a57806383e85b271461017a575f5ffd5b80630a68b7ba146100bd57806329710388146100d3575b5f5ffd5b6004546040519081526020015b60405180910390f35b6101126100e1366004610b8c565b73ffffffffffffffffffffffffffffffffffffffff9081165f90815260036020526040902054610100900416151590565b60405190151581526020016100ca565b610135610130366004610bac565b610215565b60405173ffffffffffffffffffffffffffffffffffffffff90911681526020016100ca565b6002546101359073ffffffffffffffffffffffffffffffffffffffff1681565b610135610188366004610bf0565b61024a565b6101a061019b366004610b8c565b61059a565b005b6101b56101b0366004610b8c565b61069c565b6040516100ca9190610d52565b6101d56101d0366004610da0565b6107bf565b6040516100ca9190610dc0565b6001546101359073ffffffffffffffffffffffffffffffffffffffff1681565b6101a0610210366004610b8c565b61091f565b60048181548110610224575f80fd5b5f9182526020909120015473ffffffffffffffffffffffffffffffffffffffff16905081565b5f60025f5403610286576040517f74f3606300000000000000000000000000000000000000000000000000000000815260040160405180910390fd5b60025f8190555473ffffffffffffffffffffffffffffffffffffffff9081169085166102b0578094505b73ffffffffffffffffffffffffffffffffffffffff851615806102ff57508073ffffffffffffffffffffffffffffffffffffffff168573ffffffffffffffffffffffffffffffffffffffff1614155b15610336576040517f3c02e77800000000000000000000000000000000000000000000000000000000815260040160405180910390fd5b6040515f9061034b9082908690602001610e2f565b60405160208183030381529060405290505f851561039b578160405161037090610b5c565b61037a9190610e62565b604051809103905ff080158015610393573d5f5f3e3d5ffd5b5090506103a8565b6103a58783610a71565b90505b60408051606081018252871515815273ffffffffffffffffffffffffffffffffffffffff89811660208084019182528385018a81528684165f90815260039092529490208351815492517fffffffffffffffffffffff0000000000000000000000000000000000000000009093169015157fffffffffffffffffffffff0000000000000000000000000000000000000000ff16176101009290931691909102919091178155915190919060018201906104619082610f11565b5050600480546001810182555f8290527f8a35acfbc15ff81a39ae7d344fd709f28e8600b4aa8c65c6b64bfe7fe36bd19b0180547fffffffffffffffffffffffff00000000000000000000000000000000000000001673ffffffffffffffffffffffffffffffffffffffff85169081179091556040517fc4d66de80000000000000000000000000000000000000000000000000000000081523392810192909252915063c4d66de8906024015f604051808303815f87803b158015610524575f5ffd5b505af1158015610536573d5f5f3e3d5ffd5b505050508073ffffffffffffffffffffffffffffffffffffffff167f04e664079117e113faa9684bc14aecb41651cbf098b14eda271248c6d0cda57c87898860405161058493929190611028565b60405180910390a260015f559695505050505050565b60025f54036105d5576040517f74f3606300000000000000000000000000000000000000000000000000000000815260040160405180910390fd5b60025f5560015473ffffffffffffffffffffffffffffffffffffffff16331461062a576040517f08e2ce1700000000000000000000000000000000000000000000000000000000815260040160405180910390fd5b600180547fffffffffffffffffffffffff00000000000000000000000000000000000000001673ffffffffffffffffffffffffffffffffffffffff83169081179091556040517f7b1ebd0f3ec81bf1cd5f478166ec87beaea1eee7f3bc2612295ae161048a239f905f90a25060015f55565b60408051606080820183525f808352602080840182905283850183905273ffffffffffffffffffffffffffffffffffffffff8681168352600382529185902085519384018652805460ff81161515855261010090049092169083015260018101805493949293919284019161071090610e74565b80601f016020809104026020016040519081016040528092919081815260200182805461073c90610e74565b80156107875780601f1061075e57610100808354040283529160200191610787565b820191905f5260205f20905b81548152906001019060200180831161076a57829003601f168201915b5050505050815250509050805f0151156107ba5760025473ffffffffffffffffffffffffffffffffffffffff1660208201525b919050565b60607fffffffffffffffffffffffffffffffffffffffffffffffffffffffffffffffff82036107ee5760045491505b828210806107fd575060045482115b15610834576040517fa66618e600000000000000000000000000000000000000000000000000000000815260040160405180910390fd5b61083e8383611094565b67ffffffffffffffff81111561085657610856610bc3565b60405190808252806020026020018201604052801561087f578160200160208202803683370190505b5090505f5b61088e8484611094565b8110156109185760046108a182866110ad565b815481106108b1576108b16110c0565b905f5260205f20015f9054906101000a900473ffffffffffffffffffffffffffffffffffffffff168282815181106108eb576108eb6110c0565b73ffffffffffffffffffffffffffffffffffffffff90921660209283029190910190910152600101610884565b5092915050565b60025f540361095a576040517f74f3606300000000000000000000000000000000000000000000000000000000815260040160405180910390fd5b60025f5560015473ffffffffffffffffffffffffffffffffffffffff1633146109af576040517f08e2ce1700000000000000000000000000000000000000000000000000000000815260040160405180910390fd5b8073ffffffffffffffffffffffffffffffffffffffff163b5f036109ff576040517f370f9b3800000000000000000000000000000000000000000000000000000000815260040160405180910390fd5b600280547fffffffffffffffffffffffff00000000000000000000000000000000000000001673ffffffffffffffffffffffffffffffffffffffff83169081179091556040517fddebe6de740fe0dd01cc33ffa314d11c6ac6acbbe50b80513c4c360ae7aa4f04905f90a25060015f55565b5f5f6040518060400160405280602081526020017f600b380380600b3d393df3363d3d373d3d3d3d60368038038091363936013d73815250846040518060400160405280600d81526020017f5af43d3d93803e603457fd5bf30000000000000000000000000000000000000081525085604051602001610af494939291906110ed565b60405160208183030381529060405290508051602082015ff0915073ffffffffffffffffffffffffffffffffffffffff8216610918576040517fbe4dab5d00000000000000000000000000000000000000000000000000000000815260040160405180910390fd5b6103ab8061114283390190565b803573ffffffffffffffffffffffffffffffffffffffff811681146107ba575f5ffd5b5f60208284031215610b9c575f5ffd5b610ba582610b69565b9392505050565b5f60208284031215610bbc575f5ffd5b5035919050565b7f4e487b71000000000000000000000000000000000000000000000000000000005f52604160045260245ffd5b5f5f5f60608486031215610c02575f5ffd5b610c0b84610b69565b925060208401358015158114610c1f575f5ffd5b9150604084013567ffffffffffffffff811115610c3a575f5ffd5b8401601f81018613610c4a575f5ffd5b803567ffffffffffffffff811115610c6457610c64610bc3565b6040517fffffffffffffffffffffffffffffffffffffffffffffffffffffffffffffffe0603f7fffffffffffffffffffffffffffffffffffffffffffffffffffffffffffffffe0601f8501160116810181811067ffffffffffffffff82111715610cd057610cd0610bc3565b604052818152828201602001881015610ce7575f5ffd5b816020840160208301375f602083830101528093505050509250925092565b5f81518084528060208401602086015e5f6020828601015260207fffffffffffffffffffffffffffffffffffffffffffffffffffffffffffffffe0601f83011685010191505092915050565b6020815281511515602082015273ffffffffffffffffffffffffffffffffffffffff60208301511660408201525f6040830151606080840152610d986080840182610d06565b949350505050565b5f5f60408385031215610db1575f5ffd5b50508035926020909101359150565b602080825282518282018190525f918401906040840190835b81811015610e0d57835173ffffffffffffffffffffffffffffffffffffffff16835260209384019390920191600101610dd9565b509095945050505050565b5f81518060208401855e5f93019283525090919050565b7fffffffff00000000000000000000000000000000000000000000000000000000831681525f610d986004830184610e18565b602081525f610ba56020830184610d06565b600181811c90821680610e8857607f821691505b602082108103610ebf577f4e487b71000000000000000000000000000000000000000000000000000000005f52602260045260245ffd5b50919050565b601f821115610f0c57805f5260205f20601f840160051c81016020851015610eea5750805b601f840160051c820191505b81811015610f09575f8155600101610ef6565b50505b505050565b815167ffffffffffffffff811115610f2b57610f2b610bc3565b610f3f81610f398454610e74565b84610ec5565b6020601f821160018114610f90575f8315610f5a5750848201515b7fffffffffffffffffffffffffffffffffffffffffffffffffffffffffffffffff600385901b1c1916600184901b178455610f09565b5f848152602081207fffffffffffffffffffffffffffffffffffffffffffffffffffffffffffffffe08516915b82811015610fdd5787850151825560209485019460019092019101610fbd565b508482101561101957868401517fffffffffffffffffffffffffffffffffffffffffffffffffffffffffffffffff600387901b60f8161c191681555b50505050600190811b01905550565b831515815273ffffffffffffffffffffffffffffffffffffffff83166020820152606060408201525f61105e6060830184610d06565b95945050505050565b7f4e487b71000000000000000000000000000000000000000000000000000000005f52601160045260245ffd5b818103818111156110a7576110a7611067565b92915050565b808201808211156110a7576110a7611067565b7f4e487b71000000000000000000000000000000000000000000000000000000005f52603260045260245ffd5b5f6110f88287610e18565b7fffffffffffffffffffffffffffffffffffffffff0000000000000000000000008660601b1681526111366111306014830187610e18565b85610e18565b97965050505050505056fe610140604052348015610010575f5ffd5b506040516103ab3803806103ab83398101604081905261002f91610119565b6040517f6bf6eaff5e9af8fbccb949f4c38cc016936f8775363ccf4224db160365785d52905f90a16080815111156100ad5760405162461bcd60e51b815260206004820152601660248201527f747261696c696e67206461746120746f6f206c6f6e6700000000000000000000604482015260640160405180910390fd5b3360808181527fa3f0ad74e5423aebfd80d3ef4346578335a9a72aeaee59ff6cb3582b35133d5091909155815160a09081529082526100f1908201602083016101c9565b610120526101005260e05260c052506101fc565b634e487b7160e01b5f52604160045260245ffd5b5f60208284031215610129575f5ffd5b81516001600160401b0381111561013e575f5ffd5b8201601f8101841361014e575f5ffd5b80516001600160401b0381111561016757610167610105565b604051601f8201601f19908116603f011681016001600160401b038111828210171561019557610195610105565b6040528181528282016020018610156101ac575f5ffd5b8160208401602083015e5f91810160200191909152949350505050565b5f5f5f5f608085870312156101dc575f5ffd5b505082516020840151604085015160609095015191969095509092509050565b60805160a05160c05160e051610100516101205161016e61023d5f395f60d501525f60b301525f609101525f606f01525f604d01525f602b015261016e5ff3fe60806040527f5c60da1b000000000000000000000000000000000000000000000000000000005f9081527f0000000000000000000000000000000000000000000000000000000000000000907f0000000000000000000000000000000000000000000000000000000000000000907f0000000000000000000000000000000000000000000000000000000000000000907f0000000000000000000000000000000000000000000000000000000000000000907f0000000000000000000000000000000000000000000000000000000000000000907f000000000000000000000000000000000000000000000000000000000000000090602090600481895afa5f51365f5f378536528436602001528336604001528236606001525f5f3689015f845af49150503d5f5f3e808015610134573d5ff35b3d5ffdfea2646970667358221220b70c3a5ccb619032f21844c34f82a8287e4a040076499ec636bf4145859acb0a64736f6c634300081e0033a2646970667358221220c869410ad413005c0cacad0fe74f2bcd4a770500e48e453d695730c59ab3b80364736f6c634300081e0033","linkReferences":{}},"methodIdentifiers":{"createProxy(address,bool,bytes)":"83e85b27","getProxyConfig(address)":"a20ea5c1","getProxyListLength()":"0a68b7ba","getProxyListSlice(uint256,uint256)":"c0e96df6","implementation()":"5c60da1b","isProxy(address)":"29710388","proxyList(uint256)":"378cdb62","setImplementation(address)":"d784d426","setUpgradeAdmin(address)":"9342f417","upgradeAdmin()":"c4d5608a"},"id":108}